{
    "contractName": "MonaGallery",
    "abi": [
        {
            "anonymous": false,
            "inputs": [
                {
                    "indexed": true,
                    "internalType": "address",
                    "name": "previousOwner",
                    "type": "address"
                },
                {
                    "indexed": true,
                    "internalType": "address",
                    "name": "newOwner",
                    "type": "address"
                }
            ],
            "name": "OwnershipTransferred",
            "type": "event"
        },
        {
            "inputs": [
                {
                    "internalType": "address",
                    "name": "tokenContract",
                    "type": "address"
                },
                {
                    "internalType": "address",
                    "name": "artistAddr",
                    "type": "address"
                },
                {
                    "internalType": "uint256",
                    "name": "tokenId",
                    "type": "uint256"
                },
                {
                    "internalType": "uint256",
                    "name": "price",
                    "type": "uint256"
                },
                {
                    "internalType": "uint256",
                    "name": "percentage",
                    "type": "uint256"
                },
                {
                    "internalType": "uint256",
                    "name": "expirationTimestamp",
                    "type": "uint256"
                },
                {
                    "internalType": "uint256",
                    "name": "nonce",
                    "type": "uint256"
                },
                {
                    "internalType": "bytes",
                    "name": "sig",
                    "type": "bytes"
                }
            ],
            "name": "buyNFT",
            "outputs": [],
            "stateMutability": "payable",
            "type": "function"
        },
        {
            "inputs": [
                {
                    "internalType": "bytes",
                    "name": "listingSig",
                    "type": "bytes"
                }
            ],
            "name": "cancelListing",
            "outputs": [],
            "stateMutability": "nonpayable",
            "type": "function"
        },
        {
            "inputs": [],
            "name": "owner",
            "outputs": [
                {
                    "internalType": "address",
                    "name": "",
                    "type": "address"
                }
            ],
            "stateMutability": "view",
            "type": "function"
        },
        {
            "inputs": [],
            "name": "renounceOwnership",
            "outputs": [],
            "stateMutability": "nonpayable",
            "type": "function"
        },
        {
            "inputs": [
                {
                    "internalType": "contract IERC20",
                    "name": "tokenContract",
                    "type": "address"
                }
            ],
            "name": "transferERC20",
            "outputs": [],
            "stateMutability": "nonpayable",
            "type": "function"
        },
        {
            "inputs": [
                {
                    "internalType": "address",
                    "name": "tokenContract",
                    "type": "address"
                },
                {
                    "internalType": "uint256",
                    "name": "id",
                    "type": "uint256"
                },
                {
                    "internalType": "address",
                    "name": "to",
                    "type": "address"
                }
            ],
            "name": "transferNFT",
            "outputs": [],
            "stateMutability": "nonpayable",
            "type": "function"
        },
        {
            "inputs": [
                {
                    "internalType": "address",
                    "name": "newOwner",
                    "type": "address"
                }
            ],
            "name": "transferOwnership",
            "outputs": [],
            "stateMutability": "nonpayable",
            "type": "function"
        },
        {
            "inputs": [],
            "name": "withdraw",
            "outputs": [],
            "stateMutability": "nonpayable",
            "type": "function"
        }
    ],
    "bytecode": "608060405234801561001057600080fd5b5061001a3361001f565b61006f565b600080546001600160a01b038381166001600160a01b0319831681178455604051919092169283917f8be0079c531659141344cd1fd0a4f28419497f9722a3daafe3b4186f6b6457e09190a35050565b6112f58061007e6000396000f3fe60806040526004361061007b5760003560e01c8063c9f29b281161004e578063c9f29b28146100f7578063d1d6b7391461010a578063d2f0922a1461012a578063f2fde38b1461014a5761007b565b80633ccfd60b146100805780636d11bb6014610097578063715018a6146100b75780638da5cb5b146100cc575b600080fd5b34801561008c57600080fd5b5061009561016a565b005b3480156100a357600080fd5b506100956100b2366004610d79565b610223565b3480156100c357600080fd5b50610095610289565b3480156100d857600080fd5b506100e16102c4565b6040516100ee9190610e5d565b60405180910390f35b610095610105366004610c7e565b6102d3565b34801561011657600080fd5b50610095610125366004610c5b565b610698565b34801561013657600080fd5b50610095610145366004610d18565b6107db565b34801561015657600080fd5b50610095610165366004610c5b565b610871565b336101736102c4565b6001600160a01b0316146101a25760405162461bcd60e51b81526004016101999061117e565b60405180910390fd5b60405147906000903390610bb89084906101bb90610e5a565b600060405180830381858888f193505050503d80600081146101f9576040519150601f19603f3d011682016040523d82523d6000602084013e6101fe565b606091505b505090508061021f5760405162461bcd60e51b8152600401610199906110f4565b5050565b3361022c6102c4565b6001600160a01b0316146102525760405162461bcd60e51b81526004016101999061117e565b6001808383604051610265929190610e19565b908152604051908190036020019020805491151560ff199092169190911790555050565b336102926102c4565b6001600160a01b0316146102b85760405162461bcd60e51b81526004016101999061117e565b6102c260006108cb565b565b6000546001600160a01b031690565b600182826040516102e5929190610e19565b9081526040519081900360200190205460ff16156103155760405162461bcd60e51b81526004016101999061101e565b600061031f6102c4565b9050806001600160a01b03166103a56103698c8c8c8c8c8c8c60405160200161034e9796959493929190610dd1565b6040516020818303038152906040528051906020012061091b565b85858080601f01602080910402602001604051908101604052809392919081815260200183838082843760009201919091525061094b92505050565b6001600160a01b0316146103b857600080fd5b428510156103d85760405162461bcd60e51b815260040161019990611214565b3487146103f75760405162461bcd60e51b8152600401610199906111dd565b600180848460405161040a929190610e19565b908152604051908190036020019020805491151560ff19909216919091179055600061043760283461123e565b610441903461127d565b90506000612710610452898461125e565b61045c919061123e565b905060008b6001600160a01b031682610bb89060405161047b90610e5a565b600060405180830381858888f193505050503d80600081146104b9576040519150601f19603f3d011682016040523d82523d6000602084013e6104be565b606091505b505080915050806104e15760405162461bcd60e51b815260040161019990611060565b6104eb823461127d565b925060006104fa60048561123e565b905073af2992d490e78b94113d44d63e10d1e668b699846001600160a01b031681610bb89060405161052b90610e5a565b600060405180830381858888f193505050503d8060008114610569576040519150601f19603f3d011682016040523d82523d6000602084013e61056e565b606091505b505080925050816105915760405162461bcd60e51b815260040161019990610fd0565b73077b813889659ad54e1538a380584e7a9399ff8f6105b0828661127d565b610bb8906040516105c090610e5a565b600060405180830381858888f193505050503d80600081146105fe576040519150601f19603f3d011682016040523d82523d6000602084013e610603565b606091505b505080925050816106265760405162461bcd60e51b815260040161019990610f80565b8d6001600160a01b03166342842e0e86338f6040518463ffffffff1660e01b815260040161065693929190610e71565b600060405180830381600087803b15801561067057600080fd5b505af1158015610684573d6000803e3d6000fd5b505050505050505050505050505050505050565b336106a16102c4565b6001600160a01b0316146106c75760405162461bcd60e51b81526004016101999061117e565b6040516370a0823160e01b81526001600160a01b0382169063a9059cbb90339083906370a08231906106fd908490600401610e5d565b60206040518083038186803b15801561071557600080fd5b505afa158015610729573d6000803e3d6000fd5b505050506040513d601f19601f8201168201806040525081019061074d9190610db9565b6040518363ffffffff1660e01b815260040161076a929190610e95565b602060405180830381600087803b15801561078457600080fd5b505af1158015610798573d6000803e3d6000fd5b505050506040513d601f19601f820116820180604052508101906107bc9190610d59565b6107d85760405162461bcd60e51b8152600401610199906111b3565b50565b336107e46102c4565b6001600160a01b03161461080a5760405162461bcd60e51b81526004016101999061117e565b604051632142170760e11b81526001600160a01b038416906342842e0e9061083a90309085908790600401610e71565b600060405180830381600087803b15801561085457600080fd5b505af1158015610868573d6000803e3d6000fd5b50505050505050565b3361087a6102c4565b6001600160a01b0316146108a05760405162461bcd60e51b81526004016101999061117e565b6001600160a01b0381166108c65760405162461bcd60e51b815260040161019990610f3a565b6107d8815b600080546001600160a01b038381166001600160a01b0319831681178455604051919092169283917f8be0079c531659141344cd1fd0a4f28419497f9722a3daafe3b4186f6b6457e09190a35050565b60008160405160200161092e9190610e29565b604051602081830303815290604052805190602001209050919050565b600080600061095a858561096f565b91509150610967816109df565b509392505050565b6000808251604114156109a65760208301516040840151606085015160001a61099a87828585610b0c565b945094505050506109d8565b8251604014156109d057602083015160408401516109c5868383610bec565b9350935050506109d8565b506000905060025b9250929050565b6000816004811115610a0157634e487b7160e01b600052602160045260246000fd5b1415610a0c576107d8565b6001816004811115610a2e57634e487b7160e01b600052602160045260246000fd5b1415610a4c5760405162461bcd60e51b815260040161019990610ecc565b6002816004811115610a6e57634e487b7160e01b600052602160045260246000fd5b1415610a8c5760405162461bcd60e51b815260040161019990610f03565b6003816004811115610aae57634e487b7160e01b600052602160045260246000fd5b1415610acc5760405162461bcd60e51b8152600401610199906110b2565b6004816004811115610aee57634e487b7160e01b600052602160045260246000fd5b14156107d85760405162461bcd60e51b81526004016101999061113c565b6000807f7fffffffffffffffffffffffffffffff5d576e7357a4501ddfe92f46681b20a0831115610b435750600090506003610be3565b8460ff16601b14158015610b5b57508460ff16601c14155b15610b6c5750600090506004610be3565b600060018787878760405160008152602001604052604051610b919493929190610eae565b6020604051602081039080840390855afa158015610bb3573d6000803e3d6000fd5b5050604051601f1901519150506001600160a01b038116610bdc57600060019250925050610be3565b9150600090505b94509492505050565b6000806001600160ff1b03831660ff84901c601b01610c0d87828885610b0c565b935093505050935093915050565b60008083601f840112610c2c578182fd5b50813567ffffffffffffffff811115610c43578182fd5b6020830191508360208285010111156109d857600080fd5b600060208284031215610c6c578081fd5b8135610c77816112aa565b9392505050565b60008060008060008060008060006101008a8c031215610c9c578485fd5b8935610ca7816112aa565b985060208a0135610cb7816112aa565b975060408a0135965060608a0135955060808a0135945060a08a0135935060c08a0135925060e08a013567ffffffffffffffff811115610cf5578283fd5b610d018c828d01610c1b565b915080935050809150509295985092959850929598565b600080600060608486031215610d2c578283fd5b8335610d37816112aa565b9250602084013591506040840135610d4e816112aa565b809150509250925092565b600060208284031215610d6a578081fd5b81518015158114610c77578182fd5b60008060208385031215610d8b578182fd5b823567ffffffffffffffff811115610da1578283fd5b610dad85828601610c1b565b90969095509350505050565b600060208284031215610dca578081fd5b5051919050565b6bffffffffffffffffffffffff19606098891b811682529690971b9095166014870152602886019390935260488501919091526068840152608883015260a882015260c80190565b6000828483379101908152919050565b7f19457468657265756d205369676e6564204d6573736167653a0a3332000000008152601c810191909152603c0190565b90565b6001600160a01b0391909116815260200190565b6001600160a01b039384168152919092166020820152604081019190915260600190565b6001600160a01b03929092168252602082015260400190565b93845260ff9290921660208401526040830152606082015260800190565b60208082526018908201527f45434453413a20696e76616c6964207369676e61747572650000000000000000604082015260600190565b6020808252601f908201527f45434453413a20696e76616c6964207369676e6174757265206c656e67746800604082015260600190565b60208082526026908201527f4f776e61626c653a206e6577206f776e657220697320746865207a65726f206160408201526564647265737360d01b606082015260800190565b60208082526030908201527f4661696c656420546f2053656e6420457468657220746f204d6f6e612120557360408201526f6572206861732072657665727465642160801b606082015260800190565b6020808252602e908201527f4661696c656420546f2053656e6420457468657220746f20463521205573657260408201526d206861732072657665727465642160901b606082015260800190565b60208082526022908201527f4c697374696e672077617320636f6d706c65746564206f722063616e63656c65604082015261642160f01b606082015260800190565b60208082526032908201527f4661696c656420546f2053656e6420457468657220746f20617274697374212060408201527155736572206861732072657665727465642160701b606082015260800190565b60208082526022908201527f45434453413a20696e76616c6964207369676e6174757265202773272076616c604082015261756560f01b606082015260800190565b60208082526028908201527f4661696c656420546f2053656e64204574686572212055736572206861732072604082015267657665727465642160c01b606082015260800190565b60208082526022908201527f45434453413a20696e76616c6964207369676e6174757265202776272076616c604082015261756560f01b606082015260800190565b6020808252818101527f4f776e61626c653a2063616c6c6572206973206e6f7420746865206f776e6572604082015260600190565b60208082526010908201526f5472616e73666572204661696c65642160801b604082015260600190565b60208082526017908201527f457468657220616d6f756e7420696e636f727265637421000000000000000000604082015260600190565b60208082526010908201526f4c697374696e6720657870697265642160801b604082015260600190565b60008261125957634e487b7160e01b81526012600452602481fd5b500490565b600081600019048311821515161561127857611278611294565b500290565b60008282101561128f5761128f611294565b500390565b634e487b7160e01b600052601160045260246000fd5b6001600160a01b03811681146107d857600080fdfea264697066735822122018a30a67568a1560312eb9bc7e910bd6ea8e7664ed188310af0f3f6291b5122864736f6c63430008000033",
    "sourcePath": "d:/Code/Mona-Art-Club/contracts/MonaGalleryFlat.sol",
    "compiler": {
        "name": "solc",
        "version": "0.8.0+commit.c7dfd78e"
    },
    "functionHashes": {
        "buyNFT(address,address,uint256,uint256,uint256,uint256,uint256,bytes)": "c9f29b28",
        "cancelListing(bytes)": "6d11bb60",
        "owner()": "8da5cb5b",
        "renounceOwnership()": "715018a6",
        "transferERC20(address)": "d1d6b739",
        "transferNFT(address,uint256,address)": "d2f0922a",
        "transferOwnership(address)": "f2fde38b",
        "withdraw()": "3ccfd60b"
    },
    "gasEstimates": {
        "creation": {
            "codeDepositCost": "970600",
            "executionCost": "23449",
            "totalCost": "994049"
        },
        "external": {
            "buyNFT(address,address,uint256,uint256,uint256,uint256,uint256,bytes)": "infinite",
            "cancelListing(bytes)": "infinite",
            "owner()": "1137",
            "renounceOwnership()": "23504",
            "transferERC20(address)": "infinite",
            "transferNFT(address,uint256,address)": "infinite",
            "transferOwnership(address)": "infinite",
            "withdraw()": "infinite"
        }
    }
}