{
    "contractName": "MonaArtClubExchange",
    "abi": [
        {
            "anonymous": false,
            "inputs": [
                {
                    "indexed": true,
                    "internalType": "address",
                    "name": "previousOwner",
                    "type": "address"
                },
                {
                    "indexed": true,
                    "internalType": "address",
                    "name": "newOwner",
                    "type": "address"
                }
            ],
            "name": "OwnershipTransferred",
            "type": "event"
        },
        {
            "inputs": [],
            "name": "ORDER_TYPEHASH",
            "outputs": [
                {
                    "internalType": "bytes32",
                    "name": "",
                    "type": "bytes32"
                }
            ],
            "stateMutability": "view",
            "type": "function"
        },
        {
            "inputs": [
                {
                    "internalType": "bytes",
                    "name": "memberSig",
                    "type": "bytes"
                },
                {
                    "internalType": "bytes",
                    "name": "orderSig",
                    "type": "bytes"
                },
                {
                    "internalType": "uint256",
                    "name": "price",
                    "type": "uint256"
                },
                {
                    "internalType": "uint256",
                    "name": "id",
                    "type": "uint256"
                }
            ],
            "name": "buyNFT",
            "outputs": [],
            "stateMutability": "payable",
            "type": "function"
        },
        {
            "inputs": [
                {
                    "internalType": "bytes32",
                    "name": "orderTypeHash",
                    "type": "bytes32"
                }
            ],
            "name": "initialize",
            "outputs": [],
            "stateMutability": "nonpayable",
            "type": "function"
        },
        {
            "inputs": [
                {
                    "internalType": "address",
                    "name": "user",
                    "type": "address"
                },
                {
                    "internalType": "bytes",
                    "name": "sig",
                    "type": "bytes"
                }
            ],
            "name": "isMember",
            "outputs": [
                {
                    "internalType": "bool",
                    "name": "",
                    "type": "bool"
                }
            ],
            "stateMutability": "view",
            "type": "function"
        },
        {
            "inputs": [],
            "name": "owner",
            "outputs": [
                {
                    "internalType": "address",
                    "name": "",
                    "type": "address"
                }
            ],
            "stateMutability": "view",
            "type": "function"
        },
        {
            "inputs": [],
            "name": "renounceOwnership",
            "outputs": [],
            "stateMutability": "nonpayable",
            "type": "function"
        },
        {
            "inputs": [
                {
                    "internalType": "address",
                    "name": "newOwner",
                    "type": "address"
                }
            ],
            "name": "transferOwnership",
            "outputs": [],
            "stateMutability": "nonpayable",
            "type": "function"
        }
    ],
    "bytecode": "608060405234801561001057600080fd5b506109c6806100206000396000f3fe6080604052600436106100705760003560e01c80638da5cb5b1161004e5780638da5cb5b146100d45780639498bd71146100fc578063f2fde38b1461011c578063f973a2091461013c57600080fd5b80632b76f7d414610075578063715018a6146100aa5780637fec9c4d146100c1575b600080fd5b34801561008157600080fd5b50610095610090366004610762565b610160565b60405190151581526020015b60405180910390f35b3480156100b657600080fd5b506100bf610176565b005b6100bf6100cf36600461083d565b6101e1565b3480156100e057600080fd5b506033546040516001600160a01b0390911681526020016100a1565b34801561010857600080fd5b506100bf610117366004610824565b610232565b34801561012857600080fd5b506100bf610137366004610740565b610279565b34801561014857600080fd5b5061015260655481565b6040519081526020016100a1565b60008061016d8484610344565b50949350505050565b6033546001600160a01b031633146101d55760405162461bcd60e51b815260206004820181905260248201527f4f776e61626c653a2063616c6c6572206973206e6f7420746865206f776e657260448201526064015b60405180910390fd5b6101df6000610416565b565b6102213387878080601f01602080910402602001604051908101604052809392919081815260200183838082843760009201919091525061016092505050565b61022a57600080fd5b505050505050565b600061023e6001610468565b90508015610256576000805461ff0019166101001790555b60658290556102636104f5565b8015610275576000805461ff00191690555b5050565b6033546001600160a01b031633146102d35760405162461bcd60e51b815260206004820181905260248201527f4f776e61626c653a2063616c6c6572206973206e6f7420746865206f776e657260448201526064016101cc565b6001600160a01b0381166103385760405162461bcd60e51b815260206004820152602660248201527f4f776e61626c653a206e6577206f776e657220697320746865207a65726f206160448201526564647265737360d01b60648201526084016101cc565b61034181610416565b50565b6000806000806103df6103d987604051602001610379919060609190911b6bffffffffffffffffffffffff1916815260140190565b60408051601f1981840301815282825280516020918201207f19457468657265756d205369676e6564204d6573736167653a0a33320000000084830152603c8085019190915282518085039091018152605c909301909152815191012090565b86610524565b91509150816001600160a01b03166103ff6033546001600160a01b031690565b6001600160a01b03161493509150505b9250929050565b603380546001600160a01b038381166001600160a01b0319831681179093556040519116919082907f8be0079c531659141344cd1fd0a4f28419497f9722a3daafe3b4186f6b6457e090600090a35050565b60008054610100900460ff16156104af578160ff16600114801561048b5750303b155b6104a75760405162461bcd60e51b81526004016101cc906108bb565b506000919050565b60005460ff8084169116106104d65760405162461bcd60e51b81526004016101cc906108bb565b506000805460ff191660ff92909216919091179055600190565b919050565b600054610100900460ff1661051c5760405162461bcd60e51b81526004016101cc90610909565b6101df610591565b60008082516041141561055b5760208301516040840151606085015160001a61054f878285856105c1565b9450945050505061040f565b825160401415610585576020830151604084015161057a8683836106ae565b93509350505061040f565b5060009050600261040f565b600054610100900460ff166105b85760405162461bcd60e51b81526004016101cc90610909565b6101df33610416565b6000807f7fffffffffffffffffffffffffffffff5d576e7357a4501ddfe92f46681b20a08311156105f857506000905060036106a5565b8460ff16601b1415801561061057508460ff16601c14155b1561062157506000905060046106a5565b6040805160008082526020820180845289905260ff881692820192909252606081018690526080810185905260019060a0016020604051602081039080840390855afa158015610675573d6000803e3d6000fd5b5050604051601f1901519150506001600160a01b03811661069e576000600192509250506106a5565b9150600090505b94509492505050565b6000806001600160ff1b038316816106cb60ff86901c601b610954565b90506106d9878288856105c1565b935093505050935093915050565b80356001600160a01b03811681146104f057600080fd5b60008083601f84011261071057600080fd5b50813567ffffffffffffffff81111561072857600080fd5b60208301915083602082850101111561040f57600080fd5b60006020828403121561075257600080fd5b61075b826106e7565b9392505050565b6000806040838503121561077557600080fd5b61077e836106e7565b9150602083013567ffffffffffffffff8082111561079b57600080fd5b818501915085601f8301126107af57600080fd5b8135818111156107c1576107c161097a565b604051601f8201601f19908116603f011681019083821181831017156107e9576107e961097a565b8160405282815288602084870101111561080257600080fd5b8260208601602083013760006020848301015280955050505050509250929050565b60006020828403121561083657600080fd5b5035919050565b6000806000806000806080878903121561085657600080fd5b863567ffffffffffffffff8082111561086e57600080fd5b61087a8a838b016106fe565b9098509650602089013591508082111561089357600080fd5b506108a089828a016106fe565b979a9699509760408101359660609091013595509350505050565b6020808252602e908201527f496e697469616c697a61626c653a20636f6e747261637420697320616c72656160408201526d191e481a5b9a5d1a585b1a5e995960921b606082015260800190565b6020808252602b908201527f496e697469616c697a61626c653a20636f6e7472616374206973206e6f74206960408201526a6e697469616c697a696e6760a81b606082015260800190565b6000821982111561097557634e487b7160e01b600052601160045260246000fd5b500190565b634e487b7160e01b600052604160045260246000fdfea2646970667358221220ae61aeeefd2a0b6db376ea86345d074c5f33282aa4f380624edab6037c45dd0f64736f6c63430008070033",
    "sourcePath": "d:/Code/Mona-Art-Club/contracts/Mona/MonaArtClubExchange.sol",
    "compiler": {
        "name": "solc",
        "version": "0.8.0+commit.e28d00a7"
    },
    "functionHashes": {
        "ORDER_TYPEHASH()": "f973a209",
        "buyNFT(bytes,bytes,uint256,uint256)": "7fec9c4d",
        "initialize(bytes32)": "9498bd71",
        "isMember(address,bytes)": "2b76f7d4",
        "owner()": "8da5cb5b",
        "renounceOwnership()": "715018a6",
        "transferOwnership(address)": "f2fde38b"
    },
    "gasEstimates": {
        "creation": {
            "codeDepositCost": "500400",
            "executionCost": "537",
            "totalCost": "500937"
        },
        "external": {
            "ORDER_TYPEHASH()": "2361",
            "buyNFT(bytes,bytes,uint256,uint256)": "infinite",
            "initialize(bytes32)": "infinite",
            "isMember(address,bytes)": "infinite",
            "owner()": "2301",
            "renounceOwnership()": "28140",
            "transferOwnership(address)": "28356"
        },
        "internal": {
            "_isMember(address,bytes memory)": "infinite"
        }
    }
}