{
  "contractName": "MonaGallery",
  "abi": [
    {
      "anonymous": false,
      "inputs": [
        {
          "indexed": false,
          "internalType": "address",
          "name": "tokenContract",
          "type": "address"
        },
        {
          "indexed": false,
          "internalType": "address",
          "name": "addr",
          "type": "address"
        },
        {
          "indexed": false,
          "internalType": "uint256",
          "name": "percentage",
          "type": "uint256"
        },
        {
          "indexed": false,
          "internalType": "uint256",
          "name": "artistId",
          "type": "uint256"
        }
      ],
      "name": "NewArtist",
      "type": "event"
    },
    {
      "anonymous": false,
      "inputs": [
        {
          "indexed": false,
          "internalType": "address",
          "name": "tokenContract",
          "type": "address"
        },
        {
          "indexed": false,
          "internalType": "address",
          "name": "artistAddr",
          "type": "address"
        },
        {
          "indexed": false,
          "internalType": "uint256",
          "name": "tokenId",
          "type": "uint256"
        },
        {
          "indexed": false,
          "internalType": "uint256",
          "name": "price",
          "type": "uint256"
        },
        {
          "indexed": false,
          "internalType": "uint256",
          "name": "expirationTimestamp",
          "type": "uint256"
        },
        {
          "indexed": false,
          "internalType": "uint256",
          "name": "externalListingId",
          "type": "uint256"
        }
      ],
      "name": "NewExternalOnChainListing",
      "type": "event"
    },
    {
      "anonymous": false,
      "inputs": [
        {
          "indexed": false,
          "internalType": "uint256",
          "name": "expirationTimestamp",
          "type": "uint256"
        },
        {
          "indexed": false,
          "internalType": "uint256",
          "name": "artistId",
          "type": "uint256"
        },
        {
          "indexed": false,
          "internalType": "uint256",
          "name": "tokenId",
          "type": "uint256"
        },
        {
          "indexed": false,
          "internalType": "uint256",
          "name": "price",
          "type": "uint256"
        },
        {
          "indexed": false,
          "internalType": "uint256",
          "name": "listingId",
          "type": "uint256"
        }
      ],
      "name": "NewOnChainListing",
      "type": "event"
    },
    {
      "anonymous": false,
      "inputs": [
        {
          "indexed": true,
          "internalType": "address",
          "name": "previousOwner",
          "type": "address"
        },
        {
          "indexed": true,
          "internalType": "address",
          "name": "newOwner",
          "type": "address"
        }
      ],
      "name": "OwnershipTransferred",
      "type": "event"
    },
    {
      "inputs": [],
      "name": "activeExternalOnChainListings",
      "outputs": [
        {
          "internalType": "uint256",
          "name": "",
          "type": "uint256"
        }
      ],
      "stateMutability": "view",
      "type": "function",
      "constant": true
    },
    {
      "inputs": [],
      "name": "activeOnChainListings",
      "outputs": [
        {
          "internalType": "uint256",
          "name": "",
          "type": "uint256"
        }
      ],
      "stateMutability": "view",
      "type": "function",
      "constant": true
    },
    {
      "inputs": [
        {
          "internalType": "uint256",
          "name": "",
          "type": "uint256"
        }
      ],
      "name": "artists",
      "outputs": [
        {
          "internalType": "address",
          "name": "tokenContract",
          "type": "address"
        },
        {
          "internalType": "address",
          "name": "addr",
          "type": "address"
        },
        {
          "internalType": "uint256",
          "name": "percentage",
          "type": "uint256"
        }
      ],
      "stateMutability": "view",
      "type": "function",
      "constant": true
    },
    {
      "inputs": [
        {
          "internalType": "uint256",
          "name": "",
          "type": "uint256"
        }
      ],
      "name": "onChainExternalNFTListings",
      "outputs": [
        {
          "internalType": "address",
          "name": "tokenContract",
          "type": "address"
        },
        {
          "internalType": "address",
          "name": "artistAddr",
          "type": "address"
        },
        {
          "internalType": "uint256",
          "name": "tokenId",
          "type": "uint256"
        },
        {
          "internalType": "uint256",
          "name": "price",
          "type": "uint256"
        },
        {
          "internalType": "uint256",
          "name": "expirationTimestamp",
          "type": "uint256"
        }
      ],
      "stateMutability": "view",
      "type": "function",
      "constant": true
    },
    {
      "inputs": [
        {
          "internalType": "uint256",
          "name": "",
          "type": "uint256"
        }
      ],
      "name": "onChainListings",
      "outputs": [
        {
          "internalType": "uint256",
          "name": "expirationTimestamp",
          "type": "uint256"
        },
        {
          "internalType": "uint256",
          "name": "artistId",
          "type": "uint256"
        },
        {
          "internalType": "uint256",
          "name": "tokenId",
          "type": "uint256"
        },
        {
          "internalType": "uint256",
          "name": "price",
          "type": "uint256"
        }
      ],
      "stateMutability": "view",
      "type": "function",
      "constant": true
    },
    {
      "inputs": [],
      "name": "owner",
      "outputs": [
        {
          "internalType": "address",
          "name": "",
          "type": "address"
        }
      ],
      "stateMutability": "view",
      "type": "function",
      "constant": true
    },
    {
      "inputs": [],
      "name": "renounceOwnership",
      "outputs": [],
      "stateMutability": "nonpayable",
      "type": "function"
    },
    {
      "inputs": [
        {
          "internalType": "address",
          "name": "newOwner",
          "type": "address"
        }
      ],
      "name": "transferOwnership",
      "outputs": [],
      "stateMutability": "nonpayable",
      "type": "function"
    },
    {
      "inputs": [
        {
          "internalType": "uint256",
          "name": "onChainListingId",
          "type": "uint256"
        }
      ],
      "name": "buyNFT",
      "outputs": [],
      "stateMutability": "payable",
      "type": "function",
      "payable": true
    },
    {
      "inputs": [
        {
          "internalType": "uint256",
          "name": "externalOnChainListingId",
          "type": "uint256"
        }
      ],
      "name": "buyExternalNFT",
      "outputs": [],
      "stateMutability": "payable",
      "type": "function",
      "payable": true
    },
    {
      "inputs": [
        {
          "internalType": "uint256",
          "name": "onChainListingId",
          "type": "uint256"
        }
      ],
      "name": "cancelOnChainListing",
      "outputs": [],
      "stateMutability": "nonpayable",
      "type": "function"
    },
    {
      "inputs": [
        {
          "internalType": "uint256",
          "name": "onChainExternalListingId",
          "type": "uint256"
        }
      ],
      "name": "cancelOnChainExternalListing",
      "outputs": [],
      "stateMutability": "nonpayable",
      "type": "function"
    },
    {
      "inputs": [
        {
          "internalType": "uint256",
          "name": "expirationTimestamp",
          "type": "uint256"
        },
        {
          "internalType": "uint256",
          "name": "artistId",
          "type": "uint256"
        },
        {
          "internalType": "uint256",
          "name": "tokenId",
          "type": "uint256"
        },
        {
          "internalType": "uint256",
          "name": "price",
          "type": "uint256"
        }
      ],
      "name": "onChainListNFT",
      "outputs": [],
      "stateMutability": "nonpayable",
      "type": "function"
    },
    {
      "inputs": [
        {
          "internalType": "address",
          "name": "tokenContract",
          "type": "address"
        },
        {
          "internalType": "address",
          "name": "artistAddr",
          "type": "address"
        },
        {
          "internalType": "uint256",
          "name": "tokenId",
          "type": "uint256"
        },
        {
          "internalType": "uint256",
          "name": "price",
          "type": "uint256"
        },
        {
          "internalType": "uint256",
          "name": "expirationTimestamp",
          "type": "uint256"
        }
      ],
      "name": "onChainListExternalNFT",
      "outputs": [],
      "stateMutability": "nonpayable",
      "type": "function"
    },
    {
      "inputs": [
        {
          "internalType": "address",
          "name": "tokenContract",
          "type": "address"
        },
        {
          "internalType": "address",
          "name": "addr",
          "type": "address"
        },
        {
          "internalType": "uint256",
          "name": "percentage",
          "type": "uint256"
        }
      ],
      "name": "addArtist",
      "outputs": [],
      "stateMutability": "nonpayable",
      "type": "function"
    },
    {
      "inputs": [
        {
          "internalType": "uint256",
          "name": "id",
          "type": "uint256"
        }
      ],
      "name": "getArtist",
      "outputs": [
        {
          "internalType": "address",
          "name": "tokenContract",
          "type": "address"
        },
        {
          "internalType": "address",
          "name": "addr",
          "type": "address"
        },
        {
          "internalType": "uint256",
          "name": "percentage",
          "type": "uint256"
        }
      ],
      "stateMutability": "view",
      "type": "function",
      "constant": true
    },
    {
      "inputs": [
        {
          "internalType": "uint256",
          "name": "id",
          "type": "uint256"
        }
      ],
      "name": "getOnChainListing",
      "outputs": [
        {
          "internalType": "uint256",
          "name": "expirationTimestamp",
          "type": "uint256"
        },
        {
          "internalType": "uint256",
          "name": "artistId",
          "type": "uint256"
        },
        {
          "internalType": "uint256",
          "name": "tokenId",
          "type": "uint256"
        },
        {
          "internalType": "uint256",
          "name": "price",
          "type": "uint256"
        }
      ],
      "stateMutability": "view",
      "type": "function",
      "constant": true
    },
    {
      "inputs": [
        {
          "internalType": "uint256",
          "name": "id",
          "type": "uint256"
        }
      ],
      "name": "getOnChainExternalNFTListing",
      "outputs": [
        {
          "internalType": "address",
          "name": "tokenContract",
          "type": "address"
        },
        {
          "internalType": "address",
          "name": "artistAddr",
          "type": "address"
        },
        {
          "internalType": "uint256",
          "name": "tokenId",
          "type": "uint256"
        },
        {
          "internalType": "uint256",
          "name": "price",
          "type": "uint256"
        },
        {
          "internalType": "uint256",
          "name": "expirationTimestamp",
          "type": "uint256"
        }
      ],
      "stateMutability": "view",
      "type": "function",
      "constant": true
    },
    {
      "inputs": [],
      "name": "getAllActiveOnChainListingIds",
      "outputs": [
        {
          "internalType": "uint256[]",
          "name": "",
          "type": "uint256[]"
        }
      ],
      "stateMutability": "view",
      "type": "function",
      "constant": true
    },
    {
      "inputs": [],
      "name": "getAllActiveOnChainExternalListingIds",
      "outputs": [
        {
          "internalType": "uint256[]",
          "name": "",
          "type": "uint256[]"
        }
      ],
      "stateMutability": "view",
      "type": "function",
      "constant": true
    },
    {
      "inputs": [
        {
          "internalType": "address",
          "name": "tokenContract",
          "type": "address"
        },
        {
          "internalType": "uint256",
          "name": "id",
          "type": "uint256"
        },
        {
          "internalType": "address",
          "name": "to",
          "type": "address"
        }
      ],
      "name": "transferNFT",
      "outputs": [],
      "stateMutability": "nonpayable",
      "type": "function"
    },
    {
      "inputs": [],
      "name": "withdraw",
      "outputs": [],
      "stateMutability": "nonpayable",
      "type": "function"
    }
  ],
  "bytecode": "0x608060405234801561001057600080fd5b5061001a3361001f565b61006f565b600080546001600160a01b038381166001600160a01b0319831681178455604051919092169283917f8be0079c531659141344cd1fd0a4f28419497f9722a3daafe3b4186f6b6457e09190a35050565b611dcc8061007e6000396000f3fe6080604052600436106101355760003560e01c8063a0551756116100ab578063c60ba23d1161006f578063c60ba23d14610335578063cd7e10c114610355578063d2f0922a14610375578063e07318f714610395578063e0d01084146103b5578063f2fde38b146103d557610135565b8063a05517561461029c578063b047565b146102cd578063bc233d53146102ed578063bce50bae1461030d578063c2367fec1461032057610135565b8063592eee89116100fd578063592eee89146101df578063715018a614610201578063811dd0e2146102165780638da5cb5b1461024557806393ed31801461026757806395c5a9a21461027c57610135565b806301a707e11461013a57806316f375bb1461015c5780631b27d5a4146101955780633ccfd60b146101b757806351ed8288146101cc575b600080fd5b34801561014657600080fd5b5061015a610155366004611810565b6103f5565b005b34801561016857600080fd5b5061017c610177366004611897565b6105c3565b60405161018c9493929190611cba565b60405180910390f35b3480156101a157600080fd5b506101aa610641565b60405161018c9190611cb1565b3480156101c357600080fd5b5061015a610647565b61015a6101da366004611897565b6106f7565b3480156101eb57600080fd5b506101f4610ae9565b60405161018c91906119ab565b34801561020d57600080fd5b5061015a610bba565b34801561022257600080fd5b50610236610231366004611897565b610bf5565b60405161018c939291906118f7565b34801561025157600080fd5b5061025a610c71565b60405161018c91906118e3565b34801561027357600080fd5b506101aa610c80565b34801561028857600080fd5b5061015a6102973660046118af565b610c86565b3480156102a857600080fd5b506102bc6102b7366004611897565b610dec565b60405161018c959493929190611944565b3480156102d957600080fd5b5061017c6102e8366004611897565b610e39565b3480156102f957600080fd5b506102bc610308366004611897565b610e73565b61015a61031b366004611897565b610f0f565b34801561032c57600080fd5b506101f46112a5565b34801561034157600080fd5b5061015a610350366004611897565b61136e565b34801561036157600080fd5b50610236610370366004611897565b61141c565b34801561038157600080fd5b5061015a61039036600461185c565b61145c565b3480156103a157600080fd5b5061015a6103b0366004611897565b6114f2565b3480156103c157600080fd5b5061015a6103d03660046117d5565b611598565b3480156103e157600080fd5b5061015a6103f03660046117b4565b6116e7565b336103fe610c71565b6001600160a01b03161461042d5760405162461bcd60e51b815260040161042490611be6565b60405180910390fd5b6040805160a0810182526001600160a01b038088168252868116602083019081529282018681526060830186815260808401868152600680546001810182556000918252955160059096027ff652222313e28459528d920b65115c16c04f3efc82aaedc97be59f3f377c0d3f810180549787166001600160a01b031998891617905596517ff652222313e28459528d920b65115c16c04f3efc82aaedc97be59f3f377c0d40880180549190961696169590951790935590517ff652222313e28459528d920b65115c16c04f3efc82aaedc97be59f3f377c0d41850155517ff652222313e28459528d920b65115c16c04f3efc82aaedc97be59f3f377c0d42840155517ff652222313e28459528d920b65115c16c04f3efc82aaedc97be59f3f377c0d4390920191909155600880549161056583611d65565b91905055507f1946d20ac7c3b96ec76ff8ec084ce09989830348df00d8a381db6dec55a56add858585858560016006805490506105a29190611d37565b6040516105b496959493929190611975565b60405180910390a15050505050565b6000806000806000600586815481106105ec57634e487b7160e01b600052603260045260246000fd5b6000918252602091829020604080516080810182526004939093029091018054808452600182015494840185905260028201549284018390526003909101546060909301839052999298509650945092505050565b60075481565b33610650610c71565b6001600160a01b0316146106765760405162461bcd60e51b815260040161042490611be6565b60405147906000903390610a2890849061068f906118e0565b600060405180830381858888f193505050503d80600081146106cd576040519150601f19603f3d011682016040523d82523d6000602084013e6106d2565b606091505b50509050806106f35760405162461bcd60e51b815260040161042490611b9e565b5050565b60008181526002602052604090205460ff16156107265760405162461bcd60e51b815260040161042490611b0a565b60006005828154811061074957634e487b7160e01b600052603260045260246000fd5b9060005260206000209060040201604051806080016040529081600082015481526020016001820154815260200160028201548152602001600382015481525050905042816000015110156107b05760405162461bcd60e51b815260040161042490611c87565b348160600151146107d35760405162461bcd60e51b815260040161042490611c50565b600060048260200151815481106107fa57634e487b7160e01b600052603260045260246000fd5b6000918252602080832060408051606081018252600390940290910180546001600160a01b039081168552600182015416928401929092526002909101549082015291506103e861084c346019611d18565b6108569190611cf8565b6108609034611d37565b905060006127108360400151836108779190611d18565b6108819190611cf8565b9050600083602001516001600160a01b031682610a28906040516108a4906118e0565b600060405180830381858888f193505050503d80600081146108e2576040519150601f19603f3d011682016040523d82523d6000602084013e6108e7565b606091505b5050809150508061090a5760405162461bcd60e51b815260040161042490611b4c565b6109148234611d37565b925073af2992d490e78b94113d44d63e10d1e668b69984610936600485611cf8565b610a2890604051610946906118e0565b600060405180830381858888f193505050503d8060008114610984576040519150601f19603f3d011682016040523d82523d6000602084013e610989565b606091505b505080915050806109ac5760405162461bcd60e51b815260040161042490611abc565b73077b813889659ad54e1538a380584e7a9399ff8f6109cc600485611cf8565b6109d7906003611d18565b610a28906040516109e7906118e0565b600060405180830381858888f193505050503d8060008114610a25576040519150601f19603f3d011682016040523d82523d6000602084013e610a2a565b606091505b50508091505080610a4d5760405162461bcd60e51b815260040161042490611a6c565b6000868152600260205260408120805460ff191660011790556007805491610a7483611d4e565b909155505083516040808701519051632142170760e11b81526001600160a01b03909216916342842e0e91610aaf91309133916004016118f7565b600060405180830381600087803b158015610ac957600080fd5b505af1158015610add573d6000803e3d6000fd5b50505050505050505050565b6060600060085467ffffffffffffffff811115610b1657634e487b7160e01b600052604160045260246000fd5b604051908082528060200260200182016040528015610b3f578160200160208202803683370190505b5090506000805b600654811015610bb25760008181526003602052604090205460ff16610ba05780838381518110610b8757634e487b7160e01b600052603260045260246000fd5b602090810291909101015281610b9c81611d65565b9250505b80610baa81611d65565b915050610b46565b509091505090565b33610bc3610c71565b6001600160a01b031614610be95760405162461bcd60e51b815260040161042490611be6565b610bf36000611748565b565b60008060008060048581548110610c1c57634e487b7160e01b600052603260045260246000fd5b60009182526020918290206040805160608101825260039390930290910180546001600160a01b0390811680855260018301549091169484018590526002909101549290910182905297919650945092505050565b6000546001600160a01b031690565b60085481565b33610c8f610c71565b6001600160a01b031614610cb55760405162461bcd60e51b815260040161042490611be6565b60408051608081018252858152602081018581529181018481526060820184815260058054600181018255600091825293517f036b6384b5eca791c62761152d0c79bb0604c104a5fb6f4eb0703f3154bb3db060049095029485015593517f036b6384b5eca791c62761152d0c79bb0604c104a5fb6f4eb0703f3154bb3db184015590517f036b6384b5eca791c62761152d0c79bb0604c104a5fb6f4eb0703f3154bb3db2830155517f036b6384b5eca791c62761152d0c79bb0604c104a5fb6f4eb0703f3154bb3db3909101556007805491610d9183611d65565b91905055507f49211195fde067b1870eb7750220a8c1a5086192789200a4ab8719adc3b13b9a848484846001600580549050610dcd9190611d37565b604051610dde959493929190611cd5565b60405180910390a150505050565b60068181548110610dfc57600080fd5b6000918252602090912060059091020180546001820154600283015460038401546004909401546001600160a01b03938416955091909216929085565b60058181548110610e4957600080fd5b60009182526020909120600490910201805460018201546002830154600390930154919350919084565b60008060008060008060068781548110610e9d57634e487b7160e01b600052603260045260246000fd5b60009182526020918290206040805160a08101825260059390930290910180546001600160a01b039081168085526001830154909116948401859052600282015492840183905260038201546060850181905260049092015460809094018490529b939a509098509650945092505050565b60008181526003602052604090205460ff1615610f3e5760405162461bcd60e51b815260040161042490611b0a565b600060068281548110610f6157634e487b7160e01b600052603260045260246000fd5b60009182526020918290206040805160a081018252600590930290910180546001600160a01b039081168452600182015416938301939093526002830154908201526003820154606082015260049091015460808201819052909150421115610fdc5760405162461bcd60e51b815260040161042490611c87565b34816060015114610fff5760405162461bcd60e51b815260040161042490611c50565b60006103e861100f346019611d18565b6110199190611cf8565b6110239034611d37565b905060006064611034836055611d18565b61103e9190611cf8565b9050600083602001516001600160a01b031682610a2890604051611061906118e0565b600060405180830381858888f193505050503d806000811461109f576040519150601f19603f3d011682016040523d82523d6000602084013e6110a4565b606091505b505080915050806110c75760405162461bcd60e51b815260040161042490611b4c565b6110d18234611d37565b925073af2992d490e78b94113d44d63e10d1e668b699846110f3600485611cf8565b610a2890604051611103906118e0565b600060405180830381858888f193505050503d8060008114611141576040519150601f19603f3d011682016040523d82523d6000602084013e611146565b606091505b505080915050806111695760405162461bcd60e51b815260040161042490611abc565b73077b813889659ad54e1538a380584e7a9399ff8f611189600485611cf8565b611194906003611d18565b610a28906040516111a4906118e0565b600060405180830381858888f193505050503d80600081146111e2576040519150601f19603f3d011682016040523d82523d6000602084013e6111e7565b606091505b5050809150508061120a5760405162461bcd60e51b815260040161042490611a6c565b6000858152600360205260408120805460ff19166001179055600880549161123183611d4e565b909155505083516040808601519051632142170760e11b81526001600160a01b03909216916342842e0e9161126c91309133916004016118f7565b600060405180830381600087803b15801561128657600080fd5b505af115801561129a573d6000803e3d6000fd5b505050505050505050565b6060600060075467ffffffffffffffff8111156112d257634e487b7160e01b600052604160045260246000fd5b6040519080825280602002602001820160405280156112fb578160200160208202803683370190505b5090506000805b600554811015610bb25760008181526002602052604090205460ff1661135c578083838151811061134357634e487b7160e01b600052603260045260246000fd5b60209081029190910101528161135881611d65565b9250505b8061136681611d65565b915050611302565b33611377610c71565b6001600160a01b03161461139d5760405162461bcd60e51b815260040161042490611be6565b60055481106113be5760405162461bcd60e51b815260040161042490611c1b565b60008181526003602052604090205460ff16156113ed5760405162461bcd60e51b8152600401610424906119ef565b6000818152600360205260408120805460ff19166001179055600880549161141483611d4e565b919050555050565b6004818154811061142c57600080fd5b60009182526020909120600390910201805460018201546002909201546001600160a01b03918216935091169083565b33611465610c71565b6001600160a01b03161461148b5760405162461bcd60e51b815260040161042490611be6565b604051632142170760e11b81526001600160a01b038416906342842e0e906114bb903090859087906004016118f7565b600060405180830381600087803b1580156114d557600080fd5b505af11580156114e9573d6000803e3d6000fd5b50505050505050565b336114fb610c71565b6001600160a01b0316146115215760405162461bcd60e51b815260040161042490611be6565b60055481106115425760405162461bcd60e51b815260040161042490611c1b565b60008181526002602052604090205460ff16156115715760405162461bcd60e51b8152600401610424906119ef565b6000818152600260205260408120805460ff19166001179055600780549161141483611d4e565b336115a1610c71565b6001600160a01b0316146115c75760405162461bcd60e51b815260040161042490611be6565b604080516060810182526001600160a01b0380861682528481166020830190815292820184815260048054600181810183556000839052945160039091027f8a35acfbc15ff81a39ae7d344fd709f28e8600b4aa8c65c6b64bfe7fe36bd19b810180549286166001600160a01b031993841617905595517f8a35acfbc15ff81a39ae7d344fd709f28e8600b4aa8c65c6b64bfe7fe36bd19c8701805491909516911617909255517f8a35acfbc15ff81a39ae7d344fd709f28e8600b4aa8c65c6b64bfe7fe36bd19d9093019290925590547fb5a8dbf9ba1b4a11ffa9ddfec7ec01b5d318409a36aef3f6e6bcb9f20e066d41918591859185916116ca9190611d37565b6040516116da949392919061191b565b60405180910390a1505050565b336116f0610c71565b6001600160a01b0316146117165760405162461bcd60e51b815260040161042490611be6565b6001600160a01b03811661173c5760405162461bcd60e51b815260040161042490611a26565b61174581611748565b50565b600080546001600160a01b038381166001600160a01b0319831681178455604051919092169283917f8be0079c531659141344cd1fd0a4f28419497f9722a3daafe3b4186f6b6457e09190a35050565b80356001600160a01b03811681146117af57600080fd5b919050565b6000602082840312156117c5578081fd5b6117ce82611798565b9392505050565b6000806000606084860312156117e9578182fd5b6117f284611798565b925061180060208501611798565b9150604084013590509250925092565b600080600080600060a08688031215611827578081fd5b61183086611798565b945061183e60208701611798565b94979496505050506040830135926060810135926080909101359150565b600080600060608486031215611870578283fd5b61187984611798565b92506020840135915061188e60408501611798565b90509250925092565b6000602082840312156118a8578081fd5b5035919050565b600080600080608085870312156118c4578384fd5b5050823594602084013594506040840135936060013592509050565b90565b6001600160a01b0391909116815260200190565b6001600160a01b039384168152919092166020820152604081019190915260600190565b6001600160a01b0394851681529290931660208301526040820152606081019190915260800190565b6001600160a01b03958616815293909416602084015260408301919091526060820152608081019190915260a00190565b6001600160a01b03968716815294909516602085015260408401929092526060830152608082015260a081019190915260c00190565b6020808252825182820181905260009190848201906040850190845b818110156119e3578351835292840192918401916001016119c7565b50909695505050505050565b6020808252601e908201527f416c726561647920436f6d706c65746564204f722043616e63656c6564210000604082015260600190565b60208082526026908201527f4f776e61626c653a206e6577206f776e657220697320746865207a65726f206160408201526564647265737360d01b606082015260800190565b60208082526030908201527f4661696c656420546f2053656e6420457468657220746f204d6f6e612120557360408201526f6572206861732072657665727465642160801b606082015260800190565b6020808252602e908201527f4661696c656420546f2053656e6420457468657220746f20463521205573657260408201526d206861732072657665727465642160901b606082015260800190565b60208082526022908201527f4c697374696e672077617320636f6d706c65746564206f722063616e63656c65604082015261642160f01b606082015260800190565b60208082526032908201527f4661696c656420546f2053656e6420457468657220746f20617274697374212060408201527155736572206861732072657665727465642160701b606082015260800190565b60208082526028908201527f4661696c656420546f2053656e64204574686572212055736572206861732072604082015267657665727465642160c01b606082015260800190565b6020808252818101527f4f776e61626c653a2063616c6c6572206973206e6f7420746865206f776e6572604082015260600190565b6020808252818101527f4f6e20636861696e206c697374696e6720646f6573206e6f7420657869737421604082015260600190565b60208082526017908201527f457468657220616d6f756e7420696e636f727265637421000000000000000000604082015260600190565b60208082526010908201526f4c697374696e6720657870697265642160801b604082015260600190565b90815260200190565b93845260208401929092526040830152606082015260800190565b948552602085019390935260408401919091526060830152608082015260a00190565b600082611d1357634e487b7160e01b81526012600452602481fd5b500490565b6000816000190483118215151615611d3257611d32611d80565b500290565b600082821015611d4957611d49611d80565b500390565b600081611d5d57611d5d611d80565b506000190190565b6000600019821415611d7957611d79611d80565b5060010190565b634e487b7160e01b600052601160045260246000fdfea26469706673582212204bc949133fd6527988ded8a5e50f183ea92621360635142872f5345f2b47059164736f6c63430008000033",
  "immutableReferences": {},
  "source": "// SPDX-License-Identifier: MIT\r\n\r\npragma solidity ^0.8.0;\r\n\r\nimport \"../ECDSA.sol\";\r\nimport \"../Ownable.sol\";\r\nimport \"../IERC721.sol\";\r\n\r\ncontract MonaGallery is Ownable {\r\n\r\n    struct OnChainListing {\r\n        uint expirationTimestamp;\r\n        uint artistId;\r\n        uint tokenId;\r\n        uint price;\r\n        // uint nonce;\r\n    }\r\n\r\n    struct Artist {\r\n        address tokenContract;\r\n        address addr;\r\n        uint percentage;\r\n    }\r\n\r\n    struct OnChainExternalNFTListing {\r\n        address tokenContract;\r\n        address artistAddr;\r\n        uint tokenId;\r\n        uint price;\r\n        uint expirationTimestamp;\r\n    }\r\n\r\n    mapping(bytes => bool) usedSigs;\r\n    mapping(uint => bool) _onChainListingsCompleted;\r\n    mapping(uint => bool) _ExternalOnChainListingsCompleted;\r\n\r\n\r\n    Artist[] public artists;\r\n    OnChainListing[] public onChainListings;\r\n    OnChainExternalNFTListing[] public onChainExternalNFTListings;\r\n\r\n    uint public activeOnChainListings;\r\n    uint public activeExternalOnChainListings;\r\n\r\n\r\n    event NewArtist(address tokenContract, address addr, uint percentage, uint artistId);\r\n    event NewOnChainListing(uint expirationTimestamp, uint artistId, uint tokenId, uint price, uint listingId);\r\n    event NewExternalOnChainListing(address tokenContract, address artistAddr, uint tokenId, uint price, uint expirationTimestamp, uint externalListingId);\r\n\r\n    function buyNFT(uint onChainListingId) external payable {\r\n        require(!_onChainListingsCompleted[onChainListingId], \"Listing was completed or canceled!\");\r\n        OnChainListing memory listing = onChainListings[onChainListingId];\r\n        require(uint(listing.expirationTimestamp) >= block.timestamp, \"Listing expired!\");\r\n        require(listing.price == msg.value, \"Ether amount incorrect!\");\r\n\r\n        Artist memory artist = artists[listing.artistId];\r\n\r\n        // split payments\r\n        uint eth = msg.value - ((msg.value * 25) / 1000);\r\n        uint artistAmount = (eth * artist.percentage) / 10_000;\r\n        bool success;\r\n\r\n        (success, ) = payable(artist.addr).call{value: artistAmount, gas: 2600}(\"\"); // artist\r\n        require(success, \"Failed To Send Ether to artist! User has reverted!\");\r\n\r\n        eth = msg.value - artistAmount;\r\n        (success, ) = payable(0xAF2992d490E78B94113D44d63E10D1E668b69984).call{value: eth / 4, gas: 2600}(\"\"); // F5\r\n        require(success, \"Failed To Send Ether to F5! User has reverted!\");\r\n        (success, ) = payable(0x077b813889659Ad54E1538A380584E7a9399ff8F).call{value: (eth / 4) * 3, gas: 2600}(\"\"); // Mona\r\n        require(success, \"Failed To Send Ether to Mona! User has reverted!\");\r\n\r\n        // complete listing and transfer token\r\n        _onChainListingsCompleted[onChainListingId] = true;\r\n        activeOnChainListings--;\r\n        IERC721(artist.tokenContract).safeTransferFrom(address(this), msg.sender, listing.tokenId);\r\n    }\r\n\r\n    function buyExternalNFT(uint externalOnChainListingId) external payable {\r\n        require(!_ExternalOnChainListingsCompleted[externalOnChainListingId], \"Listing was completed or canceled!\");\r\n        OnChainExternalNFTListing memory listing = onChainExternalNFTListings[externalOnChainListingId];\r\n        require(listing.expirationTimestamp >= block.timestamp, \"Listing expired!\");\r\n        require(listing.price == msg.value, \"Ether amount incorrect!\");\r\n\r\n        // split payments\r\n        uint eth = msg.value - ((msg.value * 25) / 1000);\r\n        uint artistAmount = (eth * 85) / 100;\r\n        bool success;\r\n\r\n        (success, ) = payable(listing.artistAddr).call{value: artistAmount, gas: 2600}(\"\"); // artist\r\n        require(success, \"Failed To Send Ether to artist! User has reverted!\");\r\n\r\n        eth = msg.value - artistAmount;\r\n        (success, ) = payable(0xAF2992d490E78B94113D44d63E10D1E668b69984).call{value: eth / 4, gas: 2600}(\"\"); // F5\r\n        require(success, \"Failed To Send Ether to F5! User has reverted!\");\r\n        (success, ) = payable(0x077b813889659Ad54E1538A380584E7a9399ff8F).call{value: (eth / 4) * 3, gas: 2600}(\"\"); // Mona\r\n        require(success, \"Failed To Send Ether to Mona! User has reverted!\");\r\n\r\n        // complete listing and transfer token\r\n        _ExternalOnChainListingsCompleted[externalOnChainListingId] = true;\r\n        activeExternalOnChainListings--;\r\n        IERC721(listing.tokenContract).safeTransferFrom(address(this), msg.sender, listing.tokenId);\r\n    }\r\n\r\n    function cancelOnChainListing(uint onChainListingId) external onlyOwner {\r\n        require(onChainListingId < onChainListings.length, \"On chain listing does not exist!\");\r\n        require(!_onChainListingsCompleted[onChainListingId], \"Already Completed Or Canceled!\");\r\n        _onChainListingsCompleted[onChainListingId] = true;\r\n        activeOnChainListings--;\r\n    }\r\n\r\n    function cancelOnChainExternalListing(uint onChainExternalListingId) external onlyOwner {\r\n        require(onChainExternalListingId < onChainListings.length, \"On chain listing does not exist!\");\r\n        require(!_ExternalOnChainListingsCompleted[onChainExternalListingId], \"Already Completed Or Canceled!\");\r\n        _ExternalOnChainListingsCompleted[onChainExternalListingId] = true;\r\n        activeExternalOnChainListings--;\r\n    }\r\n\r\n    function onChainListNFT(uint expirationTimestamp, uint artistId, uint tokenId, uint price) external onlyOwner {\r\n        onChainListings.push(OnChainListing(expirationTimestamp, artistId, tokenId, price));\r\n        activeOnChainListings++;\r\n        emit NewOnChainListing(expirationTimestamp, artistId, tokenId, price, onChainListings.length - 1);\r\n    }\r\n\r\n    function onChainListExternalNFT(address tokenContract, address artistAddr, uint tokenId, uint price, uint expirationTimestamp) external onlyOwner {\r\n        onChainExternalNFTListings.push(OnChainExternalNFTListing(tokenContract, artistAddr, tokenId, price, expirationTimestamp));\r\n        activeExternalOnChainListings++;\r\n        emit NewExternalOnChainListing(tokenContract, artistAddr, tokenId, price, expirationTimestamp, onChainExternalNFTListings.length - 1);\r\n    }\r\n\r\n    function addArtist(address tokenContract, address addr, uint percentage) external onlyOwner {\r\n        artists.push(Artist(tokenContract, addr, percentage));\r\n        emit NewArtist(tokenContract, addr, percentage, artists.length - 1);\r\n    }\r\n\r\n    function getArtist(uint id) external view returns (address tokenContract, address addr, uint percentage) {\r\n        Artist memory artist = artists[id];\r\n        return (artist.tokenContract, artist.addr, artist.percentage);\r\n    }\r\n\r\n    function getOnChainListing(uint id) external view returns(uint expirationTimestamp, uint artistId, uint tokenId, uint price) {\r\n        OnChainListing memory listing = onChainListings[id];\r\n        return (listing.expirationTimestamp, listing.artistId, listing.tokenId, listing.price);\r\n    }\r\n\r\n    function getOnChainExternalNFTListing(uint id) external view returns(address tokenContract, address artistAddr, uint tokenId, uint price, uint expirationTimestamp) {\r\n        OnChainExternalNFTListing memory listing = onChainExternalNFTListings[id];\r\n        return (listing.tokenContract, listing.artistAddr, listing.tokenId, listing.price, listing.expirationTimestamp);\r\n    }\r\n\r\n    function getAllActiveOnChainListingIds() external view returns(uint[] memory) {\r\n        uint[] memory listings = new uint[](activeOnChainListings);\r\n        uint x;\r\n\r\n        for (uint i; i < onChainListings.length; i++) {\r\n            if (!_onChainListingsCompleted[i]) {\r\n                listings[x] = i;\r\n                x++;\r\n            }\r\n        }\r\n        return listings;\r\n    }\r\n\r\n    function getAllActiveOnChainExternalListingIds() external view returns(uint[] memory) {\r\n        uint[] memory listings = new uint[](activeExternalOnChainListings);\r\n        uint x;\r\n\r\n        for (uint i; i < onChainExternalNFTListings.length; i++) {\r\n            if (!_ExternalOnChainListingsCompleted[i]) {\r\n                listings[x] = i;\r\n                x++;\r\n            }\r\n        }\r\n        return listings;\r\n    }\r\n    \r\n    // function hashStruct(Order memory order) private pure returns (bytes32 hash) {\r\n    //     return keccak256(abi.encode(\r\n    //         /* ORDER_TYPEHASH */ keccak256(\"Order(address tokenContract,uint expirationTimestamp,uint tokenId,uint price)\"),\r\n    //         order.tokenContract,\r\n    //         order.expirationTimestamp,\r\n    //         order.tokenId,\r\n    //         order.price\r\n    //     ));\r\n    // }\r\n\r\n    function transferNFT(address tokenContract, uint id, address to) external onlyOwner {\r\n        IERC721(tokenContract).safeTransferFrom(address(this), to, id);\r\n    }\r\n\r\n/*\r\n    function getMsgOrderHash(Order calldata order) external pure returns(bytes32) {\r\n        return keccak256(abi.encodePacked(order.tokenContract, order.expirationTimestamp, order.tokenId, order.price, order.nonce));\r\n    }\r\n*/\r\n\r\n    function withdraw() external onlyOwner {\r\n        uint bal = address(this).balance;\r\n        (bool success, ) = payable(msg.sender).call{value: bal, gas: 2600}(\"\");\r\n        require(success, \"Failed To Send Ether! User has reverted!\");\r\n    }\r\n}",
  "sourcePath": "D:\\Code\\Mona-Art-Club\\contracts\\MonaGallery\\MonaArtClubGallery.sol",
  "compiler": {
    "name": "solc",
    "version": "0.8.0+commit.c7dfd78e.Emscripten.clang"
  },
  "schemaVersion": "3.4.5",
  "updatedAt": "2022-04-11T11:14:22.773Z",
  "networkType": "ethereum",
  "devdoc": {
    "kind": "dev",
    "methods": {
      "owner()": {
        "details": "Returns the address of the current owner."
      },
      "renounceOwnership()": {
        "details": "Leaves the contract without owner. It will not be possible to call `onlyOwner` functions anymore. Can only be called by the current owner. NOTE: Renouncing ownership will leave the contract without an owner, thereby removing any functionality that is only available to the owner."
      },
      "transferOwnership(address)": {
        "details": "Transfers ownership of the contract to a new account (`newOwner`). Can only be called by the current owner."
      }
    },
    "version": 1
  },
  "userdoc": {
    "kind": "user",
    "methods": {},
    "version": 1
  }
}