{
  "contractName": "MonaArtistContract",
  "abi": [
    {
      "anonymous": false,
      "inputs": [
        {
          "indexed": true,
          "internalType": "address",
          "name": "_owner",
          "type": "address"
        },
        {
          "indexed": true,
          "internalType": "address",
          "name": "_approved",
          "type": "address"
        },
        {
          "indexed": true,
          "internalType": "uint256",
          "name": "_tokenId",
          "type": "uint256"
        }
      ],
      "name": "Approval",
      "type": "event"
    },
    {
      "anonymous": false,
      "inputs": [
        {
          "indexed": true,
          "internalType": "address",
          "name": "_owner",
          "type": "address"
        },
        {
          "indexed": true,
          "internalType": "address",
          "name": "_operator",
          "type": "address"
        },
        {
          "indexed": false,
          "internalType": "bool",
          "name": "_approved",
          "type": "bool"
        }
      ],
      "name": "ApprovalForAll",
      "type": "event"
    },
    {
      "anonymous": false,
      "inputs": [
        {
          "indexed": true,
          "internalType": "address",
          "name": "previousOwner",
          "type": "address"
        },
        {
          "indexed": true,
          "internalType": "address",
          "name": "newOwner",
          "type": "address"
        }
      ],
      "name": "OwnershipTransferred",
      "type": "event"
    },
    {
      "anonymous": false,
      "inputs": [
        {
          "indexed": true,
          "internalType": "address",
          "name": "_from",
          "type": "address"
        },
        {
          "indexed": true,
          "internalType": "address",
          "name": "_to",
          "type": "address"
        },
        {
          "indexed": true,
          "internalType": "uint256",
          "name": "_tokenId",
          "type": "uint256"
        }
      ],
      "name": "Transfer",
      "type": "event"
    },
    {
      "inputs": [
        {
          "internalType": "address",
          "name": "to",
          "type": "address"
        },
        {
          "internalType": "uint256",
          "name": "tokenId",
          "type": "uint256"
        }
      ],
      "name": "approve",
      "outputs": [],
      "stateMutability": "nonpayable",
      "type": "function"
    },
    {
      "inputs": [
        {
          "internalType": "address",
          "name": "owner",
          "type": "address"
        }
      ],
      "name": "balanceOf",
      "outputs": [
        {
          "internalType": "uint256",
          "name": "",
          "type": "uint256"
        }
      ],
      "stateMutability": "view",
      "type": "function"
    },
    {
      "inputs": [
        {
          "internalType": "uint256",
          "name": "tokenId",
          "type": "uint256"
        }
      ],
      "name": "getApproved",
      "outputs": [
        {
          "internalType": "address",
          "name": "",
          "type": "address"
        }
      ],
      "stateMutability": "view",
      "type": "function"
    },
    {
      "inputs": [
        {
          "internalType": "address",
          "name": "owner",
          "type": "address"
        },
        {
          "internalType": "address",
          "name": "operator",
          "type": "address"
        }
      ],
      "name": "isApprovedForAll",
      "outputs": [
        {
          "internalType": "bool",
          "name": "",
          "type": "bool"
        }
      ],
      "stateMutability": "view",
      "type": "function"
    },
    {
      "inputs": [],
      "name": "monaExchangeAddress",
      "outputs": [
        {
          "internalType": "address",
          "name": "",
          "type": "address"
        }
      ],
      "stateMutability": "view",
      "type": "function"
    },
    {
      "inputs": [],
      "name": "name",
      "outputs": [
        {
          "internalType": "string",
          "name": "",
          "type": "string"
        }
      ],
      "stateMutability": "view",
      "type": "function"
    },
    {
      "inputs": [],
      "name": "newContract",
      "outputs": [
        {
          "internalType": "address",
          "name": "",
          "type": "address"
        }
      ],
      "stateMutability": "view",
      "type": "function"
    },
    {
      "inputs": [],
      "name": "owner",
      "outputs": [
        {
          "internalType": "address",
          "name": "",
          "type": "address"
        }
      ],
      "stateMutability": "view",
      "type": "function"
    },
    {
      "inputs": [
        {
          "internalType": "uint256",
          "name": "tokenId",
          "type": "uint256"
        }
      ],
      "name": "ownerOf",
      "outputs": [
        {
          "internalType": "address",
          "name": "",
          "type": "address"
        }
      ],
      "stateMutability": "view",
      "type": "function"
    },
    {
      "inputs": [],
      "name": "proxyRegistryAddress",
      "outputs": [
        {
          "internalType": "address",
          "name": "",
          "type": "address"
        }
      ],
      "stateMutability": "view",
      "type": "function"
    },
    {
      "inputs": [],
      "name": "renounceOwnership",
      "outputs": [],
      "stateMutability": "nonpayable",
      "type": "function"
    },
    {
      "inputs": [
        {
          "internalType": "address",
          "name": "from",
          "type": "address"
        },
        {
          "internalType": "address",
          "name": "to",
          "type": "address"
        },
        {
          "internalType": "uint256",
          "name": "tokenId",
          "type": "uint256"
        }
      ],
      "name": "safeTransferFrom",
      "outputs": [],
      "stateMutability": "nonpayable",
      "type": "function"
    },
    {
      "inputs": [
        {
          "internalType": "address",
          "name": "from",
          "type": "address"
        },
        {
          "internalType": "address",
          "name": "to",
          "type": "address"
        },
        {
          "internalType": "uint256",
          "name": "tokenId",
          "type": "uint256"
        },
        {
          "internalType": "bytes",
          "name": "_data",
          "type": "bytes"
        }
      ],
      "name": "safeTransferFrom",
      "outputs": [],
      "stateMutability": "nonpayable",
      "type": "function"
    },
    {
      "inputs": [
        {
          "internalType": "address",
          "name": "operator",
          "type": "address"
        },
        {
          "internalType": "bool",
          "name": "approved",
          "type": "bool"
        }
      ],
      "name": "setApprovalForAll",
      "outputs": [],
      "stateMutability": "nonpayable",
      "type": "function"
    },
    {
      "inputs": [
        {
          "internalType": "address",
          "name": "addr",
          "type": "address"
        }
      ],
      "name": "setOpenseaProxyRegistry",
      "outputs": [],
      "stateMutability": "nonpayable",
      "type": "function"
    },
    {
      "inputs": [],
      "name": "symbol",
      "outputs": [
        {
          "internalType": "string",
          "name": "",
          "type": "string"
        }
      ],
      "stateMutability": "pure",
      "type": "function"
    },
    {
      "inputs": [
        {
          "internalType": "uint256",
          "name": "tokenId",
          "type": "uint256"
        }
      ],
      "name": "tokenURI",
      "outputs": [
        {
          "internalType": "string",
          "name": "",
          "type": "string"
        }
      ],
      "stateMutability": "view",
      "type": "function"
    },
    {
      "inputs": [],
      "name": "totalSupply",
      "outputs": [
        {
          "internalType": "uint16",
          "name": "",
          "type": "uint16"
        }
      ],
      "stateMutability": "view",
      "type": "function"
    },
    {
      "inputs": [
        {
          "internalType": "address",
          "name": "from",
          "type": "address"
        },
        {
          "internalType": "address",
          "name": "to",
          "type": "address"
        },
        {
          "internalType": "uint256",
          "name": "tokenId",
          "type": "uint256"
        }
      ],
      "name": "transferFrom",
      "outputs": [],
      "stateMutability": "nonpayable",
      "type": "function"
    },
    {
      "inputs": [
        {
          "internalType": "address",
          "name": "newOwner",
          "type": "address"
        }
      ],
      "name": "transferOwnership",
      "outputs": [],
      "stateMutability": "nonpayable",
      "type": "function"
    },
    {
      "inputs": [
        {
          "internalType": "uint256",
          "name": "royalty",
          "type": "uint256"
        },
        {
          "internalType": "address",
          "name": "royaltyAddress",
          "type": "address"
        },
        {
          "internalType": "address",
          "name": "_monaExchangeAddress",
          "type": "address"
        },
        {
          "internalType": "address",
          "name": "_openseaProxyRegistry",
          "type": "address"
        },
        {
          "internalType": "string",
          "name": "name_",
          "type": "string"
        }
      ],
      "name": "initialize",
      "outputs": [],
      "stateMutability": "nonpayable",
      "type": "function"
    },
    {
      "inputs": [
        {
          "internalType": "string",
          "name": "uri",
          "type": "string"
        }
      ],
      "name": "mint",
      "outputs": [],
      "stateMutability": "nonpayable",
      "type": "function"
    },
    {
      "inputs": [
        {
          "internalType": "uint256",
          "name": "tokenId",
          "type": "uint256"
        }
      ],
      "name": "_burnToMigrate",
      "outputs": [],
      "stateMutability": "nonpayable",
      "type": "function"
    },
    {
      "inputs": [
        {
          "internalType": "uint256",
          "name": "tokenId",
          "type": "uint256"
        },
        {
          "internalType": "uint256",
          "name": "salePrice",
          "type": "uint256"
        }
      ],
      "name": "royaltyInfo",
      "outputs": [
        {
          "internalType": "address",
          "name": "receiver",
          "type": "address"
        },
        {
          "internalType": "uint256",
          "name": "royaltyAmount",
          "type": "uint256"
        }
      ],
      "stateMutability": "view",
      "type": "function"
    },
    {
      "inputs": [
        {
          "internalType": "uint256",
          "name": "amount",
          "type": "uint256"
        }
      ],
      "name": "setRoyaltyPercent",
      "outputs": [],
      "stateMutability": "nonpayable",
      "type": "function"
    },
    {
      "inputs": [
        {
          "internalType": "bytes4",
          "name": "interfaceId",
          "type": "bytes4"
        }
      ],
      "name": "supportsInterface",
      "outputs": [
        {
          "internalType": "bool",
          "name": "",
          "type": "bool"
        }
      ],
      "stateMutability": "view",
      "type": "function"
    },
    {
      "inputs": [
        {
          "internalType": "address",
          "name": "owner",
          "type": "address"
        }
      ],
      "name": "tokensOfOwner",
      "outputs": [
        {
          "internalType": "uint256[]",
          "name": "",
          "type": "uint256[]"
        }
      ],
      "stateMutability": "view",
      "type": "function"
    }
  ],
  "bytecode": "0x608060405234801561001057600080fd5b506120c6806100206000396000f3fe608060405234801561001057600080fd5b50600436106101a95760003560e01c80638da5cb5b116100f9578063c87b56dd11610097578063e64d48ac11610071578063e64d48ac1461037d578063e985e9c514610390578063f2fde38b146103a3578063fbc3c9f0146103b6576101a9565b8063c87b56dd1461034f578063cd7c032614610362578063d85d3d271461036a576101a9565b8063a22cb465116100d3578063a22cb46514610303578063a71d493f14610316578063b88d4fde14610329578063bd2f52441461033c576101a9565b80638da5cb5b146102e057806395d89b41146102e85780639a4fc640146102f0576101a9565b80632a55205a116101665780636352211e116101405780636352211e1461028557806370a0823114610298578063715018a6146102b85780638462151c146102c0576101a9565b80632a55205a1461024957806342842e0e1461026a5780634313b5311461027d576101a9565b806301ffc9a7146101ae57806306fdde03146101d7578063081812fc146101ec578063095ea7b31461020c57806318160ddd1461022157806323b872dd14610236575b600080fd5b6101c16101bc3660046116f8565b6103be565b6040516101ce919061192e565b60405180910390f35b6101df6103e9565b6040516101ce9190611939565b6101ff6101fa36600461177f565b61047b565b6040516101ce9190611880565b61021f61021a3660046116cd565b6104c7565b005b61022961054a565b6040516101ce9190611f16565b61021f6102443660046115df565b61055b565b61025c610257366004611814565b61058c565b6040516101ce9291906118d1565b61021f6102783660046115df565b6105e2565b6101ff6105fd565b6101ff61029336600461177f565b61060c565b6102ab6102a636600461158b565b610641565b6040516101ce9190611f25565b61021f610685565b6102d36102ce36600461158b565b6106c0565b6040516101ce91906118ea565b6101ff6107d6565b6101df6107eb565b61021f6102fe36600461177f565b610809565b61021f61031136600461169c565b61085f565b61021f61032436600461177f565b61086e565b61021f61033736600461161f565b610891565b61021f61034a36600461158b565b6108c9565b6101df61035d36600461177f565b61091a565b6101ff6109df565b61021f61037836600461174c565b6109ee565b61021f61038b366004611797565b610a33565b6101c161039e3660046115a7565b610ad4565b61021f6103b136600461158b565b610ba6565b6101ff610c04565b60006001600160e01b0319821663152a902d60e11b14806103e357506103e382610c13565b92915050565b6060600280546103f890611fc1565b80601f016020809104026020016040519081016040528092919081815260200182805461042490611fc1565b80156104715780601f1061044657610100808354040283529160200191610471565b820191906000526020600020905b81548152906001019060200180831161045457829003601f168201915b5050505050905090565b600061048682610c53565b6104ab5760405162461bcd60e51b81526004016104a290611ce3565b60405180910390fd5b506000908152600560205260409020546001600160a01b031690565b6000818152600360205260409020546001600160a01b039081169083168114156105035760405162461bcd60e51b81526004016104a290611df4565b336001600160a01b038216148061051f575061051f8133610ad4565b61053b5760405162461bcd60e51b81526004016104a290611b27565b6105458383610c70565b505050565b600054600160b01b900461ffff1681565b6105653382610cde565b6105815760405162461bcd60e51b81526004016104a290611e35565b610545838383610d60565b60008061059884610c53565b6105b45760405162461bcd60e51b81526004016104a290611c9c565b6105bc6107d6565b612710600854856105cd9190611f74565b6105d79190611f54565b915091509250929050565b61054583838360405180602001604052806000815250610891565b600b546001600160a01b031681565b6000818152600360205260408120546001600160a01b0316806103e35760405162461bcd60e51b81526004016104a290611bce565b60006001600160a01b0382166106695760405162461bcd60e51b81526004016104a290611b84565b506001600160a01b031660009081526004602052604090205490565b3361068e6107d6565b6001600160a01b0316146106b45760405162461bcd60e51b81526004016104a290611d2f565b6106be6000610e78565b565b6001600160a01b0381166000908152600460205260408120546060919067ffffffffffffffff81111561070357634e487b7160e01b600052604160045260246000fd5b60405190808252806020026020018201604052801561072c578160200160208202803683370190505b50600080549192509061074b90600160b01b900461ffff166001611f2e565b61ffff169050600060015b828110156107cc57856001600160a01b03166107718261060c565b6001600160a01b031614156107ba57808483815181106107a157634e487b7160e01b600052603260045260246000fd5b6020908102919091010152816107b68161201e565b9250505b806107c48161201e565b915050610756565b5091949350505050565b6000546201000090046001600160a01b031690565b6040805180820190915260048152634d4f4e4160e01b602082015290565b336108126107d6565b6001600160a01b0316146108385760405162461bcd60e51b81526004016104a290611d2f565b6103e881111561085a5760405162461bcd60e51b81526004016104a290611aa4565b600855565b61086a338383610ed3565b5050565b600b546001600160a01b0316331461088557600080fd5b61088e81610f76565b50565b61089b3383610cde565b6108b75760405162461bcd60e51b81526004016104a290611e35565b6108c384848484611011565b50505050565b336108d26107d6565b6001600160a01b0316146108f85760405162461bcd60e51b81526004016104a290611d2f565b600180546001600160a01b0319166001600160a01b0392909216919091179055565b606061092582610c53565b6109415760405162461bcd60e51b81526004016104a290611d64565b6000828152600760205260409020805461095a90611fc1565b80601f016020809104026020016040519081016040528092919081815260200182805461098690611fc1565b80156109d35780601f106109a8576101008083540402835291602001916109d3565b820191906000526020600020905b8154815290600101906020018083116109b657829003601f168201915b50505050509050919050565b6001546001600160a01b031681565b336109f76107d6565b6001600160a01b031614610a1d5760405162461bcd60e51b81526004016104a290611d2f565b600a5461088e906001600160a01b031682611044565b600054610100900460ff16610a4e5760005460ff1615610a56565b610a56611171565b610a725760405162461bcd60e51b81526004016104a290611c17565b600054610100900460ff16158015610a9d576000805460ff1961ff0019909116610100171660011790555b610aa5611182565b610aaf83836111b1565b610aba868686611206565b8015610acc576000805461ff00191690555b505050505050565b60015460405163c455279160e01b81526000916001600160a01b039081169190841690829063c455279190610b0d908890600401611880565b60206040518083038186803b158015610b2557600080fd5b505afa158015610b39573d6000803e3d6000fd5b505050506040513d601f19601f82011682018060405250810190610b5d9190611730565b6001600160a01b03161415610b765760019150506103e3565b50506001600160a01b03918216600090815260066020908152604080832093909416825291909152205460ff1690565b33610baf6107d6565b6001600160a01b031614610bd55760405162461bcd60e51b81526004016104a290611d2f565b6001600160a01b038116610bfb5760405162461bcd60e51b81526004016104a29061199e565b61088e81610e78565b600a546001600160a01b031681565b60006001600160e01b031982166380ac58cd60e01b1480610c4457506001600160e01b03198216635b5e139f60e01b145b806103e357506103e3826112ce565b6000908152600360205260409020546001600160a01b0316151590565b600081815260056020526040902080546001600160a01b0319166001600160a01b0384169081179091558190610ca58261060c565b6001600160a01b03167f8c5be1e5ebec7d5bd14f71427d1e84f3dd0314c0f7b2291e5b200ac8c7c3b92560405160405180910390a45050565b6000610ce982610c53565b610d055760405162461bcd60e51b81526004016104a290611adb565b6000828152600360205260409020546001600160a01b03908116908416811480610d485750836001600160a01b0316610d3d8461047b565b6001600160a01b0316145b80610d585750610d588185610ad4565b949350505050565b6000818152600360205260409020546001600160a01b03848116911614610d995760405162461bcd60e51b81526004016104a2906119e4565b6001600160a01b038216610dbf5760405162461bcd60e51b81526004016104a290611a29565b610dca600082610c70565b6001600160a01b0383166000908152600460205260408120805491610dee83611faa565b90915550506001600160a01b0382166000908152600460205260408120805491610e178361201e565b909155505060008181526003602052604080822080546001600160a01b0319166001600160a01b0386811691821790925591518493918716917fddf252ad1be2c89b69c2b068fc378daa952ba7f163c4a11628f55a4df523b3ef91a4505050565b600080546001600160a01b038381166201000081810262010000600160b01b0319851617855560405193049190911692909183917f8be0079c531659141344cd1fd0a4f28419497f9722a3daafe3b4186f6b6457e091a35050565b816001600160a01b0316836001600160a01b03161415610f055760405162461bcd60e51b81526004016104a290611a6d565b6001600160a01b0383811660008181526006602090815260408083209487168084529490915290819020805460ff1916851515179055517f17307eab39ab6107e8899845ad3d59bd9653f200f220920489ca2b5937696c3190610f6990859061192e565b60405180910390a3505050565b6000610f818261060c565b9050610f8e600083610c70565b6001600160a01b0381166000908152600460205260408120805460019290610fb7908490611f93565b909155505060008281526003602052604080822080546001600160a01b0319169055518391906001600160a01b038416907fddf252ad1be2c89b69c2b068fc378daa952ba7f163c4a11628f55a4df523b3ef908390a45050565b61101c848484610d60565b611028848484846112e7565b6108c35760405162461bcd60e51b81526004016104a29061194c565b600080546001600160a01b03841682526004602052604082208054600160b01b90920461ffff16926110758361201e565b919050555080806110859061201e565b600081815260036020908152604080832080546001600160a01b0319166001600160a01b038a161790556007825290912085519294506110ca9350919085019061145c565b5060405181906001600160a01b038516906000907fddf252ad1be2c89b69c2b068fc378daa952ba7f163c4a11628f55a4df523b3ef908290a460008054600160b01b900461ffff1690601661111e83611ffc565b91906101000a81548161ffff021916908361ffff1602179055505061115560008483604051806020016040528060008152506112e7565b6105455760405162461bcd60e51b81526004016104a29061194c565b600061117c306113fb565b15905090565b600054610100900460ff166111a95760405162461bcd60e51b81526004016104a290611e86565b6106be61142c565b600054610100900460ff166111d85760405162461bcd60e51b81526004016104a290611e86565b600180546001600160a01b0319166001600160a01b038416179055805161054590600290602084019061145c565b600054610100900460ff1661122d5760405162461bcd60e51b81526004016104a290611e86565b6103e883111561124f5760405162461bcd60e51b81526004016104a290611db3565b6001600160a01b0382166112755760405162461bcd60e51b81526004016104a290611c65565b6001600160a01b03811661129b5760405162461bcd60e51b81526004016104a290611ed1565b600980546001600160a01b03199081166001600160a01b0394851617909155600893909355600a80549093169116179055565b6001600160e01b031981166301ffc9a760e01b14919050565b60006112fb846001600160a01b03166113fb565b156113f057604051630a85bd0160e11b81526001600160a01b0385169063150b7a0290611332903390899088908890600401611894565b602060405180830381600087803b15801561134c57600080fd5b505af192505050801561137c575060408051601f3d908101601f1916820190925261137991810190611714565b60015b6113d6573d8080156113aa576040519150601f19603f3d011682016040523d82523d6000602084013e6113af565b606091505b5080516113ce5760405162461bcd60e51b81526004016104a29061194c565b805181602001fd5b6001600160e01b031916630a85bd0160e11b149050610d58565b506001949350505050565b600080826001600160a01b0316803b806020016040519081016040528181526000908060200190933c511192915050565b600054610100900460ff166114535760405162461bcd60e51b81526004016104a290611e86565b6106be33610e78565b82805461146890611fc1565b90600052602060002090601f01602090048101928261148a57600085556114d0565b82601f106114a357805160ff19168380011785556114d0565b828001600101855582156114d0579182015b828111156114d05782518255916020019190600101906114b5565b506114dc9291506114e0565b5090565b5b808211156114dc57600081556001016114e1565b600067ffffffffffffffff808411156115105761151061204f565b604051601f8501601f1916810160200182811182821017156115345761153461204f565b60405284815291508183850186101561154c57600080fd5b8484602083013760006020868301015250509392505050565b600082601f830112611575578081fd5b611584838335602085016114f5565b9392505050565b60006020828403121561159c578081fd5b813561158481612065565b600080604083850312156115b9578081fd5b82356115c481612065565b915060208301356115d481612065565b809150509250929050565b6000806000606084860312156115f3578081fd5b83356115fe81612065565b9250602084013561160e81612065565b929592945050506040919091013590565b60008060008060808587031215611634578081fd5b843561163f81612065565b9350602085013561164f81612065565b925060408501359150606085013567ffffffffffffffff811115611671578182fd5b8501601f81018713611681578182fd5b611690878235602084016114f5565b91505092959194509250565b600080604083850312156116ae578182fd5b82356116b981612065565b9150602083013580151581146115d4578182fd5b600080604083850312156116df578182fd5b82356116ea81612065565b946020939093013593505050565b600060208284031215611709578081fd5b81356115848161207a565b600060208284031215611725578081fd5b81516115848161207a565b600060208284031215611741578081fd5b815161158481612065565b60006020828403121561175d578081fd5b813567ffffffffffffffff811115611773578182fd5b610d5884828501611565565b600060208284031215611790578081fd5b5035919050565b600080600080600060a086880312156117ae578081fd5b8535945060208601356117c081612065565b935060408601356117d081612065565b925060608601356117e081612065565b9150608086013567ffffffffffffffff8111156117fb578182fd5b61180788828901611565565b9150509295509295909350565b60008060408385031215611826578182fd5b50508035926020909101359150565b60008151808452815b8181101561185a5760208185018101518683018201520161183e565b8181111561186b5782602083870101525b50601f01601f19169290920160200192915050565b6001600160a01b0391909116815260200190565b6001600160a01b03858116825284166020820152604081018390526080606082018190526000906118c790830184611835565b9695505050505050565b6001600160a01b03929092168252602082015260400190565b6020808252825182820181905260009190848201906040850190845b8181101561192257835183529284019291840191600101611906565b50909695505050505050565b901515815260200190565b6000602082526115846020830184611835565b60208082526032908201527f4552433732313a207472616e7366657220746f206e6f6e20455243373231526560408201527131b2b4bb32b91034b6b83632b6b2b73a32b960711b606082015260800190565b60208082526026908201527f4f776e61626c653a206e6577206f776e657220697320746865207a65726f206160408201526564647265737360d01b606082015260800190565b60208082526025908201527f4552433732313a207472616e736665722066726f6d20696e636f72726563742060408201526437bbb732b960d91b606082015260800190565b60208082526024908201527f4552433732313a207472616e7366657220746f20746865207a65726f206164646040820152637265737360e01b606082015260800190565b60208082526019908201527f4552433732313a20617070726f766520746f2063616c6c657200000000000000604082015260600190565b60208082526019908201527f43616e277420676f206f7665722031302070657263656e742100000000000000604082015260600190565b6020808252602c908201527f4552433732313a206f70657261746f7220717565727920666f72206e6f6e657860408201526b34b9ba32b73a103a37b5b2b760a11b606082015260800190565b60208082526038908201527f4552433732313a20617070726f76652063616c6c6572206973206e6f74206f7760408201527f6e6572206e6f7220617070726f76656420666f7220616c6c0000000000000000606082015260800190565b6020808252602a908201527f4552433732313a2062616c616e636520717565727920666f7220746865207a65604082015269726f206164647265737360b01b606082015260800190565b60208082526029908201527f4552433732313a206f776e657220717565727920666f72206e6f6e657869737460408201526832b73a103a37b5b2b760b91b606082015260800190565b6020808252602e908201527f496e697469616c697a61626c653a20636f6e747261637420697320616c72656160408201526d191e481a5b9a5d1a585b1a5e995960921b606082015260800190565b6020808252601f908201527f526f79616c747920616464726573732063616e6e6f74206265206e756c6c2100604082015260600190565b60208082526027908201527f526f79616c6974792071756572727920666f72206e6f6e2d6578697374616e7460408201526620746f6b656e2160c81b606082015260800190565b6020808252602c908201527f4552433732313a20617070726f76656420717565727920666f72206e6f6e657860408201526b34b9ba32b73a103a37b5b2b760a11b606082015260800190565b6020808252818101527f4f776e61626c653a2063616c6c6572206973206e6f7420746865206f776e6572604082015260600190565b6020808252602f908201527f4552433732314d657461646174613a2055524920717565727920666f72206e6f60408201526e3732bc34b9ba32b73a103a37b5b2b760891b606082015260800190565b60208082526021908201527f43616e277420676f206f7665722031302070657263656e7420726f79616c74796040820152602160f81b606082015260800190565b60208082526021908201527f4552433732313a20617070726f76616c20746f2063757272656e74206f776e656040820152603960f91b606082015260800190565b60208082526031908201527f4552433732313a207472616e736665722063616c6c6572206973206e6f74206f6040820152701ddb995c881b9bdc88185c1c1c9bdd9959607a1b606082015260800190565b6020808252602b908201527f496e697469616c697a61626c653a20636f6e7472616374206973206e6f74206960408201526a6e697469616c697a696e6760a81b606082015260800190565b60208082526025908201527f4d6f6e612065786368616e676520616464726573732063616e6e6f74206265206040820152646e756c6c2160d81b606082015260800190565b61ffff91909116815260200190565b90815260200190565b600061ffff808316818516808303821115611f4b57611f4b612039565b01949350505050565b600082611f6f57634e487b7160e01b81526012600452602481fd5b500490565b6000816000190483118215151615611f8e57611f8e612039565b500290565b600082821015611fa557611fa5612039565b500390565b600081611fb957611fb9612039565b506000190190565b600281046001821680611fd557607f821691505b60208210811415611ff657634e487b7160e01b600052602260045260246000fd5b50919050565b600061ffff8083168181141561201457612014612039565b6001019392505050565b600060001982141561203257612032612039565b5060010190565b634e487b7160e01b600052601160045260246000fd5b634e487b7160e01b600052604160045260246000fd5b6001600160a01b038116811461088e57600080fd5b6001600160e01b03198116811461088e57600080fdfea2646970667358221220a1d48926bc35cf55c4ad9a252e61536a156cc7c138aab620084075051c78c58e64736f6c63430008000033",
  "immutableReferences": {},
  "source": "// SPDX-License-Identifier: MIT\r\npragma solidity ^0.8.0;\r\n\r\nimport \"./ERC721.sol\";\r\nimport \"./IERC2981.sol\";\r\n\r\ncontract MonaArtistContract is Initializable, IERC2981, ERC721 {\r\n\r\n    uint private EIP2981RoyaltyPercent;\r\n\r\n    address private EIP2981RoyaltyAddress;\r\n\r\n    address public monaExchangeAddress;\r\n\r\n    address public newContract;\r\n\r\n    function initialize(\r\n        uint royalty, \r\n        address royaltyAddress,\r\n        address _monaExchangeAddress,\r\n        address _openseaProxyRegistry,\r\n        string memory name_\r\n    ) external initializer {\r\n        __Ownable_init();\r\n        __ERC721_init(_openseaProxyRegistry, name_);\r\n        __MonaArtistContract_init(royalty, royaltyAddress, _monaExchangeAddress);\r\n    }\r\n\r\n    function __MonaArtistContract_init(\r\n        uint royalty,\r\n        address royaltyAddress,\r\n        address _monaExchangeAddress\r\n    ) internal onlyInitializing {\r\n        require(royalty <= 1000, \"Can't go over 10 percent royalty!\");\r\n        require(royaltyAddress != address(0), \"Royalty address cannot be null!\");\r\n        require(_monaExchangeAddress != address(0), \"Mona exchange address cannot be null!\");\r\n\r\n        EIP2981RoyaltyAddress = royaltyAddress;\r\n        EIP2981RoyaltyPercent = royalty;\r\n        monaExchangeAddress = _monaExchangeAddress;\r\n    }\r\n\r\n    function mint(string memory uri) external onlyOwner {\r\n        _mint(monaExchangeAddress, uri);\r\n    }\r\n\r\n    function _burnToMigrate(uint tokenId) external {\r\n        require(msg.sender == newContract);\r\n        _burn(tokenId);\r\n    }\r\n\r\n    /**\r\n     * @notice returns royalty info for EIP2981 supporting marketplaces\r\n     * @dev Called with the sale price to determine how much royalty is owed and to whom.\r\n     * @param tokenId - the NFT asset queried for royalty information\r\n     * @param salePrice - the sale price of the NFT asset specified by `tokenId`\r\n     * @return receiver - address of who should be sent the royalty payment\r\n     * @return royaltyAmount - the royalty payment amount for `salePrice`\r\n     */\r\n    function royaltyInfo(uint tokenId, uint salePrice) external view override returns(address receiver, uint256 royaltyAmount) {\r\n        require(_exists(tokenId), \"Royality querry for non-existant token!\");\r\n        return(owner(), salePrice * EIP2981RoyaltyPercent / 10000);\r\n    }\r\n\r\n    /**\r\n     * @notice sets the royalty percentage for EIP2981 supporting marketplaces\r\n     * @dev percentage is in bassis points (parts per 10,000).\r\n            Example: 5% = 500, 0.5% = 50 \r\n     * @param amount - percent amount\r\n     */\r\n    function setRoyaltyPercent(uint256 amount) external onlyOwner {\r\n        require(amount <= 1000, \"Can't go over 10 percent!\");\r\n        EIP2981RoyaltyPercent = amount; \r\n    }\r\n\r\n    /**\r\n     * @dev See {IERC165-supportsInterface}.\r\n     */\r\n    function supportsInterface(bytes4 interfaceId) public view virtual override(IERC165, ERC721) returns (bool) {\r\n        return\r\n            interfaceId == type(IERC2981).interfaceId ||\r\n            super.supportsInterface(interfaceId);\r\n    }\r\n\r\n    function tokensOfOwner(address owner) external view returns(uint[] memory) {\r\n        uint[] memory tokens = new uint[](_balances[owner]);\r\n        uint y = totalSupply + 1;\r\n        uint x;\r\n\r\n        for (uint i = 1; i < y; i++) {\r\n            if (ownerOf(i) == owner) {\r\n                tokens[x] = i;\r\n                x++;\r\n            }\r\n        }\r\n\r\n        return tokens;\r\n    }\r\n}",
  "sourcePath": "D:\\Code\\Mona-Art-Club\\contracts\\MonaArtists\\MonaArtistContract.sol",
  "compiler": {
    "name": "solc",
    "version": "0.8.0+commit.c7dfd78e.Emscripten.clang"
  },
  "schemaVersion": "3.4.5",
  "updatedAt": "2022-04-10T16:52:22.438Z",
  "devdoc": {
    "kind": "dev",
    "methods": {
      "approve(address,uint256)": {
        "details": "See {IERC721-approve}."
      },
      "balanceOf(address)": {
        "details": "See {IERC721-balanceOf}."
      },
      "getApproved(uint256)": {
        "details": "See {IERC721-getApproved}."
      },
      "isApprovedForAll(address,address)": {
        "details": "See {IERC721-isApprovedForAll}."
      },
      "name()": {
        "details": "See {IERC721Metadata-name}."
      },
      "owner()": {
        "details": "Returns the address of the current owner."
      },
      "ownerOf(uint256)": {
        "details": "See {IERC721-ownerOf}."
      },
      "renounceOwnership()": {
        "details": "Leaves the contract without owner. It will not be possible to call `onlyOwner` functions anymore. Can only be called by the current owner. NOTE: Renouncing ownership will leave the contract without an owner, thereby removing any functionality that is only available to the owner."
      },
      "royaltyInfo(uint256,uint256)": {
        "details": "Called with the sale price to determine how much royalty is owed and to whom.",
        "params": {
          "salePrice": "- the sale price of the NFT asset specified by `tokenId`",
          "tokenId": "- the NFT asset queried for royalty information"
        },
        "returns": {
          "receiver": "- address of who should be sent the royalty payment",
          "royaltyAmount": "- the royalty payment amount for `salePrice`"
        }
      },
      "safeTransferFrom(address,address,uint256)": {
        "details": "See {IERC721-safeTransferFrom}."
      },
      "safeTransferFrom(address,address,uint256,bytes)": {
        "details": "See {IERC721-safeTransferFrom}."
      },
      "setApprovalForAll(address,bool)": {
        "details": "See {IERC721-setApprovalForAll}."
      },
      "setRoyaltyPercent(uint256)": {
        "details": "percentage is in bassis points (parts per 10,000). Example: 5% = 500, 0.5% = 50 ",
        "params": {
          "amount": "- percent amount"
        }
      },
      "supportsInterface(bytes4)": {
        "details": "See {IERC165-supportsInterface}."
      },
      "symbol()": {
        "details": "See {IERC721Metadata-symbol}."
      },
      "tokenURI(uint256)": {
        "details": "See {IERC721Metadata-tokenURI}."
      },
      "transferFrom(address,address,uint256)": {
        "details": "See {IERC721-transferFrom}."
      },
      "transferOwnership(address)": {
        "details": "Transfers ownership of the contract to a new account (`newOwner`). Can only be called by the current owner."
      }
    },
    "version": 1
  },
  "userdoc": {
    "kind": "user",
    "methods": {
      "royaltyInfo(uint256,uint256)": {
        "notice": "returns royalty info for EIP2981 supporting marketplaces"
      },
      "setRoyaltyPercent(uint256)": {
        "notice": "sets the royalty percentage for EIP2981 supporting marketplaces"
      }
    },
    "version": 1
  }
}