{
  "contractName": "MonaArtistContractFactory",
  "abi": [
    {
      "inputs": [
        {
          "internalType": "address",
          "name": "_implementation",
          "type": "address"
        }
      ],
      "stateMutability": "nonpayable",
      "type": "constructor"
    },
    {
      "anonymous": false,
      "inputs": [
        {
          "indexed": true,
          "internalType": "address",
          "name": "instance",
          "type": "address"
        }
      ],
      "name": "Cloned",
      "type": "event"
    },
    {
      "inputs": [],
      "name": "implementation",
      "outputs": [
        {
          "internalType": "address",
          "name": "",
          "type": "address"
        }
      ],
      "stateMutability": "view",
      "type": "function",
      "constant": true
    },
    {
      "inputs": [],
      "name": "owner",
      "outputs": [
        {
          "internalType": "address",
          "name": "",
          "type": "address"
        }
      ],
      "stateMutability": "view",
      "type": "function",
      "constant": true
    },
    {
      "inputs": [
        {
          "internalType": "address",
          "name": "newOwner",
          "type": "address"
        }
      ],
      "name": "transferOwnership",
      "outputs": [],
      "stateMutability": "nonpayable",
      "type": "function"
    },
    {
      "inputs": [],
      "name": "renounceOwnership",
      "outputs": [],
      "stateMutability": "nonpayable",
      "type": "function"
    },
    {
      "inputs": [
        {
          "internalType": "address",
          "name": "newImplementation",
          "type": "address"
        }
      ],
      "name": "setImplementation",
      "outputs": [],
      "stateMutability": "nonpayable",
      "type": "function"
    },
    {
      "inputs": [
        {
          "internalType": "bytes",
          "name": "signature",
          "type": "bytes"
        }
      ],
      "name": "clone",
      "outputs": [],
      "stateMutability": "payable",
      "type": "function",
      "payable": true
    },
    {
      "inputs": [
        {
          "internalType": "address",
          "name": "addr",
          "type": "address"
        }
      ],
      "name": "getMsgHash",
      "outputs": [
        {
          "internalType": "bytes32",
          "name": "",
          "type": "bytes32"
        }
      ],
      "stateMutability": "pure",
      "type": "function",
      "constant": true
    }
  ],
  "bytecode": "0x608060405234801561001057600080fd5b506040516109fc3803806109fc83398101604081905261002f9161005d565b600080546001600160a01b039092166001600160a01b0319928316179055600180549091163317905561008b565b60006020828403121561006e578081fd5b81516001600160a01b0381168114610084578182fd5b9392505050565b6109628061009a6000396000f3fe6080604052600436106100705760003560e01c80638ca89f771161004e5780638ca89f77146100e45780638da5cb5b146100f7578063d784d4261461010c578063f2fde38b1461012c57610070565b806324b50e43146100755780635c60da1b146100ab578063715018a6146100cd575b600080fd5b34801561008157600080fd5b506100956100903660046106af565b61014c565b6040516100a291906107ac565b60405180910390f35b3480156100b757600080fd5b506100c061017c565b6040516100a29190610798565b3480156100d957600080fd5b506100e261018b565b005b6100e26100f23660046106dd565b6101b4565b34801561010357600080fd5b506100c061028e565b34801561011857600080fd5b506100e26101273660046106af565b61029d565b34801561013857600080fd5b506100e26101473660046106af565b6102f4565b60008160405160200161015f919061074a565b604051602081830303815290604052805190602001209050919050565b6000546001600160a01b031681565b6001546001600160a01b031633146101a257600080fd5b600180546001600160a01b0319169055565b6102226101e6336040516020016101cb919061074a565b60405160208183030381529060405280519060200120610340565b83838080601f01602080910402602001604051908101604052809392919081815260200183838082843760009201919091525061035392505050565b6001546001600160a01b0390811691161461023c57600080fd5b60008054610252906001600160a01b0316610377565b6040519091506001600160a01b038216907f783540fb4221a3238720dc7038937d0d79982bcf895274aa6ad179f82cf0d53c90600090a2505050565b6001546001600160a01b031681565b606081901b6001600160f01b031916156102d25760405162461bcd60e51b81526004016102c9906108f5565b60405180910390fd5b600080546001600160a01b0319166001600160a01b0392909216919091179055565b6001546001600160a01b0316331461030b57600080fd5b6001600160a01b03811661031e57600080fd5b600180546001600160a01b0319166001600160a01b0392909216919091179055565b60008160405160200161015f9190610767565b60008060006103628585610400565b9150915061036f81610470565b509392505050565b604051733d602b80600a3d3981f3363d3d373d3d3d363d7160601b81526dffffffffffffffffffffffffffff19607083901b16601482018190526e5af43d82803e903d91602957fd5bf360881b602683015260009160358184f09250506001600160a01b0382166103fa5760405162461bcd60e51b81526004016102c990610883565b50919050565b6000808251604114156104375760208301516040840151606085015160001a61042b878285856105a0565b94509450505050610469565b8251604014156104615760208301516040840151610456868383610680565b935093505050610469565b506000905060025b9250929050565b600081600481111561049257634e487b7160e01b600052602160045260246000fd5b141561049d5761059d565b60018160048111156104bf57634e487b7160e01b600052602160045260246000fd5b14156104dd5760405162461bcd60e51b81526004016102c9906107d3565b60028160048111156104ff57634e487b7160e01b600052602160045260246000fd5b141561051d5760405162461bcd60e51b81526004016102c99061080a565b600381600481111561053f57634e487b7160e01b600052602160045260246000fd5b141561055d5760405162461bcd60e51b81526004016102c990610841565b600481600481111561057f57634e487b7160e01b600052602160045260246000fd5b141561059d5760405162461bcd60e51b81526004016102c9906108b3565b50565b6000807f7fffffffffffffffffffffffffffffff5d576e7357a4501ddfe92f46681b20a08311156105d75750600090506003610677565b8460ff16601b141580156105ef57508460ff16601c14155b156106005750600090506004610677565b60006001878787876040516000815260200160405260405161062594939291906107b5565b6020604051602081039080840390855afa158015610647573d6000803e3d6000fd5b5050604051601f1901519150506001600160a01b03811661067057600060019250925050610677565b9150600090505b94509492505050565b6000806001600160ff1b03831660ff84901c601b016106a1878288856105a0565b935093505050935093915050565b6000602082840312156106c0578081fd5b81356001600160a01b03811681146106d6578182fd5b9392505050565b600080602083850312156106ef578081fd5b823567ffffffffffffffff80821115610706578283fd5b818501915085601f830112610719578283fd5b813581811115610727578384fd5b866020828501011115610738578384fd5b60209290920196919550909350505050565b60609190911b6bffffffffffffffffffffffff1916815260140190565b7f19457468657265756d205369676e6564204d6573736167653a0a3332000000008152601c810191909152603c0190565b6001600160a01b0391909116815260200190565b90815260200190565b93845260ff9290921660208401526040830152606082015260800190565b60208082526018908201527f45434453413a20696e76616c6964207369676e61747572650000000000000000604082015260600190565b6020808252601f908201527f45434453413a20696e76616c6964207369676e6174757265206c656e67746800604082015260600190565b60208082526022908201527f45434453413a20696e76616c6964207369676e6174757265202773272076616c604082015261756560f01b606082015260800190565b602080825260169082015275115490cc4c4d8dce8818dc99585d194819985a5b195960521b604082015260600190565b60208082526022908201527f45434453413a20696e76616c6964207369676e6174757265202776272076616c604082015261756560f01b606082015260800190565b60208082526019908201527f4d75737420626520612076616e6974792061646472657373210000000000000060408201526060019056fea26469706673582212208e3bcbc7d7bee1e571c8d825b528279acaacb1ff3f579da2e505ce5c827ebfe564736f6c63430008000033",
  "immutableReferences": {},
  "source": "// SPDX-License-Identifier: MIT\r\n\r\npragma solidity ^0.8.0;\r\n\r\nimport \"./Cloner.sol\";\r\nimport \"../ECDSA.sol\";\r\n\r\ncontract MonaArtistContractFactory {\r\n\r\n    address public implementation;\r\n    address public owner;\r\n\r\n    event Cloned(address indexed instance);\r\n\r\n    modifier onlyOwner() {\r\n        require(msg.sender == owner);\r\n        _;\r\n    }\r\n\r\n    constructor(address _implementation) {\r\n        implementation = _implementation;\r\n        owner = msg.sender;\r\n    }\r\n\r\n    function transferOwnership(address newOwner) external onlyOwner {\r\n        require(newOwner != address(0));\r\n        owner = newOwner;\r\n    }\r\n\r\n    function renounceOwnership() external onlyOwner {\r\n        delete owner;\r\n    }\r\n    \r\n    function setImplementation(address newImplementation) external {\r\n        require(bytes2(bytes20(newImplementation)) == bytes2(0), \"Must be a vanity address!\");\r\n        implementation = newImplementation;\r\n    }\r\n\r\n\r\n    function clone(bytes calldata signature) external payable {\r\n        require(owner == ECDSA.recover(ECDSA.toEthSignedMessageHash(keccak256(abi.encodePacked(msg.sender))), signature));\r\n\r\n        address instance = Cloner.createClone(implementation);\r\n        \r\n        emit Cloned(instance);\r\n    }\r\n\r\n    function getMsgHash(address addr) external pure returns(bytes32) {\r\n        return keccak256(abi.encodePacked(addr));\r\n    }\r\n\r\n}",
  "sourcePath": "D:\\Code\\Mona-Art-Club\\contracts\\cloner\\MonaArtistContractFactory.sol",
  "compiler": {
    "name": "solc",
    "version": "0.8.0+commit.c7dfd78e.Emscripten.clang"
  },
  "schemaVersion": "3.4.5",
  "updatedAt": "2022-04-11T11:14:22.787Z",
  "networkType": "ethereum",
  "devdoc": {
    "kind": "dev",
    "methods": {},
    "version": 1
  },
  "userdoc": {
    "kind": "user",
    "methods": {},
    "version": 1
  }
}